:020000040800F2
:10000000F00E0020A1010008A9010008AB010008C2
:10001000AD010008AF010008B101000800000000B8
:10002000000000000000000000000000B301000814
:10003000B501000800000000B7010008B901000880
:10004000BB010008BB010008BB010008BB010008A0
:10005000BB010008BB010008BB010008BB01000890
:10006000BB010008BB010008D51F0008BB01000848
:10007000BB010008BB010008BB010008BB01000870
:10008000BB010008BB010008BB010008BB01000860
:10009000BB010008BB010008BB010008BB01000850
:1000A000BD420008DD420008BB010008BB0100089A
:1000B000BB010008BB010008BB010008BB01000830
:1000C000BB010008BB010008BB010008BB01000820
:1000D000BB0100085D520008B9520008BB010008CE
:1000E000BB010008BB010008BB010008BB01000800
:1000F000BB010008BB010008BB010008BB010008F0
:10010000BB010008BB010008BB010008BB010008DF
:100110004D520008BB0100080943000835430008A0
:10012000BB010008BB010008BB010008BB010008BF
:10013000BB010008BB010008BB010008BB010008AF
:10014000BB010008BB010008BB010008BB0100089F
:10015000BB010008BB010008BB010008BB0100088F
:10016000BB010008BB010008BB010008BB0100087F
:10017000BB010008BB010008BB010008BB0100086F
:10018000BB010008BB010008DFF810D000F0C2FA84
:10019000004800475D5C0008AFF30080F00E0020CF
:1001A0000648804706480047FEE7FEE7FEE7FEE711
:1001B000FEE7FEE7FEE7FEE7FEE7FEE75542000842
:1001C0008901000840EA01039B0703D009E008C940
:1001D000121F08C0042AFAD203E011F8013B00F80C
:1001E000013B521EF9D27047D2B201E000F8012B58
:1001F000491EFBD270470022F6E710B513460A46A7
:1002000004461946FFF7F0FF204610BD421C10F8C7
:10021000011B0029FBD1801A70472DE9FE4F804653
:1002200081EA0300C00F0C46009021F0004123F04A
:100230000045B8EB0200A94105D240462146904650
:100240001C460B46024623F00040104347D0270DC2
:10025000C7F30A00C3F30A510290401A01904028E4
:100260006BDAC3F3130040F4801B0098924620B170
:100270000023D2EB030A63EB0B0B01985946C0F144
:100280004002504600F080F906460D465046594659
:10029000019A00F098F910EB08006141002487EA08
:1002A000115284EAE7731A4340D0009A62B3019A6C
:1002B000012A4FEA075215DC001B61EB02014FF0E7
:1002C000004202EA0752CDE90042001C41F58011CC
:1002D00032462B4600F0CFF903B0BDE8F08F404620
:1002E0002146F9E7001B61EB0201001C41F5801378
:1002F00000185B412018A2F5001747EB030140EA04
:10030000D570B6196D4111E06D084FEA360645EA21
:10031000C0754FEA0752001B61EB0201001C41F55A
:10032000801149084FEA30000019514132462B46EE
:1003300003B0BDE8F04F00F08FB9009801224000F3
:100340000023D0EB020263EBE073009821464FEAF2
:10035000E074B8EB000061EB0401E9E783F00043CF
:100360005BE781F0004158E72DE9FE4F81EA030485
:1003700004F0004421F0004100944FF0000B23F002
:10038000004350EA01045ED052EA03045BD0C3F399
:100390000A54C1F30A552C44A4F2F3340194A0FB8F
:1003A0000254C1F3130141F48011C3F3130343F466
:1003B000801301FB024400FB034E840A970A44EABF
:1003C000815447EA8357A4FB076802958D0A05FB11
:1003D00007854FEA932C04FB0C542705029D4FEA36
:1003E000065847EA1637B5EB08056EEB070C870E83
:1003F000920E47EA811742EA8312A7FB0201B6EB8D
:100400000B0164EB00042B0D43EA0C335E1844EB44
:100410001C50DA465146E7FB0201C5F313044FEACC
:100420000B3343EA14534FEA0432019C43EA0603B8
:10043000A4F10C040294009CCDE900B400F01BF977
:1004400003B0BDE8F08F00200146F9E72DE9F04D3B
:1004500081EA030404F0004B21F0004514464FF0FC
:10046000000A23F0004150EA050220D054EA0102BC
:100470001DD0C5F30A570246C5F31303C1F3130099
:10048000C1F30A5640F4801543F48013A7EB060825
:10049000101BD64608F2FD3873EB050002D308F1B5
:1004A000010801E092185B41B8F1000F03DA002067
:1004B0000146BDE8F08D00204FF4801106468446C9
:1004C0000EE0171B73EB050705D3121B63EB050347
:1004D00006434CEA010C49084FEA300092185B4190
:1004E00050EA0107EDD152EA030012D082EA04007B
:1004F00083EA0501084305D0101BAB4106D2012257
:10050000002306E000224FF0004302E06FF00102FA
:1005100053101AEB06004CEB085110EB0A0041EBAC
:100520000B01BDE8F04D00F097B800F0004230F04C
:1005300000400AD0C10D01F56071C0F3160042EA17
:100540000151C2084007114370470020014670471F
:1005500001F0004330B421F0004150EA010206D01E
:100560000A0DA2F56072C1F31301002A02DC30BC4F
:1005700000207047440F44EAC104C100E01830BCB9
:1005800000EBC25000F031B8202A04DB203A00FA18
:1005900002F1002070479140C2F1200320FA03F3DA
:1005A000194390407047202A04DB203A21FA02F0D8
:1005B0000021704721FA02F3D040C2F1200291409D
:1005C000084319467047202A06DBCB17203A41FA28
:1005D00002F043EAE07306E041FA02F3D040C2F1D0
:1005E000200291400843194670470029A8BF704770
:1005F000401C490008BF20F00100704710B4B0FA59
:1006000080FC00FA0CF050EA010404BF10BC7047F3
:1006100049B1CCF1200421FA04F411FA0CF118BF0D
:10062000012121430843A3EB0C01CB1D4FEA0061DC
:100630004FEA102042BF002010BC704700EBC350AF
:1006400010440029A4BF10BC7047401C490008BFDB
:1006500020F0010010BC704710B5141E73F10004A7
:1006600008DA401C41F1000192185B411A4301D1A4
:1006700020F0010010BD2DE9F04D92469B4611B1CE
:10068000B1FA81F202E0B0FA80F220329046FFF730
:100690007BFF04460F4640EA0A0041EA0B0153463D
:1006A0005A46084313D0114653EA010019D0C8F145
:1006B00040025046FFF777FF05460E465046594622
:1006C0004246FFF761FF084305D0012004E02046C1
:1006D0003946BDE8F08D0020054346EAE0762C431C
:1006E00037430A986305E40AA0EB08000022FD0ADC
:1006F00044EA47540A3002D500200146E9E70105E3
:1007000010196941DDE9084500196941BDE8F04D5E
:10071000A2E70000064C074D06E0E06840F0010348
:1007200094E8070098471034AC42F6D3FFF730FD49
:100730001C6000083C60000870B58D1810F8014B73
:1007400014F0030201D110F8012B231106D110F887
:10075000013B03E010F8016B01F8016B521EF9D167
:10076000ABB110F8012B04F00C048A1A0C2C03D046
:10077000A2EB84129B1C08E010F8014BA2EB0422B0
:10078000F8E712F8014B01F8014B5B1EF9D5A942BD
:10079000D4D3002070BDCA430260704721B1826883
:1007A00042F00102826003E0826822F0010282606E
:1007B000704700000021084A1168084A1140D0E93A
:1007C00000231A4383681A43C3681A431143044A37
:1007D000C2F804137047000004230140E030FCFF1E
:1007E0000020014000B58DB00121084603F058F902
:1007F0000121080203F084F94020019003208DF8C4
:10080000080000208DF80B0001A9174802F0E4F859
:100810000020039004900690059003A8FFF7CAFFFC
:100820000121080203F07CF900214FF4807003F0ED
:1008300077F900208DF8200007908DF821000990AD
:100840000B9001208DF8300007A9084800F01EF831
:10085000062301221946054800F042F80121034809
:10086000FFF79CFF0DB000BD0000024000200140DA
:100870000146C86C80B270470246002013680B40E6
:100880000BB1012000E000207047000030B50246A7
:10089000002000235068104C20400D790C6844EA79
:1008A00005242043506090680C4C2040D1E903544B
:1008B0002C438D682C434D7944EA450420439060D5
:1008C000D06A20F470000C7D641EE4B2234340EA39
:1008D0000350D06230BD0000FFFEFFFCFDF7FFC0FB
:1008E000F0B504460D4600200021092D11DDE06819
:1008F000A5F10A0606EB4607072606FA07F1884324
:10090000A5F10A0606EB460603FA06F10843E06085
:100910000CE0206905EB4507072606FA07F1884336
:1009200005EB450603FA06F108432061072A0FDAB2
:10093000606B561E06EB86071F2606FA07F18843F2
:10094000561E06EB860605FA06F10843606322E0B0
:100950000D2A0FDA206BD61F06EB86071F2606FA34
:1009600007F18843D61F06EB860605FA06F1084311
:10097000206310E0E06AA2F10D0606EB86071F2651
:1009800006FA07F18843A2F10D0606EB860605FA82
:1009900006F10843E062F0BD816841F0804181606A
:1009A0007047000070B50023224A1278082A03DA43
:1009B0000022214C22703BE0002034E01F4A125CF0
:1009C000552A2ED11D4CC21DA25CBB2A29D1254619
:1009D000841C2D5D194EC41C345D2544041D345DFA
:1009E0002544441D345D2A19D41702EB14642412E3
:1009F000A2EB0424E3B23446821DA25C9A420DD1DC
:100A0000002105E00A180D4CA25C62544A1CD1B2C8
:100A10000829F7DB0122084C227002E00022064C74
:100A20002270421CD0B2034A1278D21F8242C5DA29
:100A300070BD00006C050020900500205C090020BE
:100A400010B500F009F8012003F0C6FB00200149B1
:100A5000086010BDBC0243421CB50121422003F0D6
:100A60001FF88020009001208DF8040000208DF8F0
:100A7000060003208DF8050069460A4801F0ACFF26
:100A80004FF40040009001208DF8040000208DF804
:100A9000060003208DF805006946034801F09CFF1D
:100AA0001CBD0000000402400018024010B503F015
:100AB000CFF9012008490860022005F097F807489F
:100AC000D0F81802C4B2002003490860022005F0E3
:100AD0008DF8204610BD00009C82404200804042BC
:100AE00070B5044603F0C4F900251BE004F080064D
:100AF0001EB101200E49086002E000200C49086088
:100B00006006040E01200A49091D0860022005F054
:100B10006DF800200749C1F89C02022005F066F834
:100B2000681CC5B2082DE1DBFFF7C0FF70BD0000F7
:100B3000988240420080404210B503F099F90120AC
:100B4000094908600949C1F89C02042005F04EF8E3
:100B5000002005490860042005F048F800200349FA
:100B6000C1F89C0210BD00009882404200804042C3
:100B700010B503F07DF900200749086001200749FE
:100B8000C1F89C02042005F031F8012002490860F8
:100B9000042005F02BF810BD9882404200804042AE
:100BA0000146002204E001F0010000B1521C490896
:100BB0000029F8D1C2F108007047000010B50446C2
:100BC0000B48844209D10121480602F089FF002127
:100BD0004FF0007002F084FF08E00121880602F067
:100BE0007FFF00214FF0806002F07AFF10BD00000F
:100BF0000064004010B50021837A012202FA03F15B
:100C00003D4A126842F001023B4B1A603A4A1C32DC
:100C100012688A43384B1C331A60027BCAB9364AC1
:100C20000C3212688A43344B0C331A604288C388F2
:100C300042EA0343304A4032847A42F83430028830
:100C4000838842EA03432C4A4032847A02EBC4028E
:100C50005360027B012A19D1274A0C3212680A43D9
:100C6000254B0C331A604288038842EA0343224A28
:100C70004032847A42F83430C288838842EA03439F
:100C80001D4A4032847A02EBC4025360C27A3AB9F8
:100C9000194A121D12688A43174B1B1D1A6006E081
:100CA000154A121D12680A43134B1B1D1A60028954
:100CB00032B9114A143212688A430F4B14331A6046
:100CC0000289012A06D10C4A143212680A430A4BDF
:100CD00014331A60427B012A06D1074A1C3212687B
:100CE0000A43054B1C331A60034A126822F00102C2
:100CF000014B1A6010BD0000006600401AB1436944
:100D00000B43436102E043698B434361704730B555
:100D1000024600200023146824F0020414601468C2
:100D200044F00104146000E05B1C546804F001040A
:100D30001CB94FF6FF74A342F6D1546804F00104C5
:100D40000CB900206CE08C79012C04D1146844F0BB
:100D50008004146003E0146824F080041460CC79EB
:100D6000012C04D1146844F04004146003E01468BA
:100D700024F0400414600C7A012C04D1146844F06F
:100D80002004146003E0146824F0200414604C7AFA
:100D9000012C04D1146844F01004146003E01468BA
:100DA00024F0100414608C7A012C04D1146844F0EF
:100DB0000804146003E0146824F008041460CC7A7A
:100DC000012C04D1146844F00404146003E0146896
:100DD00024F0040414608C78A407CD7844EA0564F8
:100DE0000D7944EA05444D7944EA05540D886D1E99
:100DF0002C43D461146824F001041460002300E043
:100E00005B1C546804F001041CB14FF6FF74A3424C
:100E1000F6D1546804F001040CB1002000E0012078
:100E200030BD0246002019B9D36803F0030006E084
:100E3000012903D1136903F0030000E0002070478B
:100E400010B500F5D87303EB01131B6803F004031E
:100E50001372137A53B900F5D87303EB01131B68AF
:100E600040F2FF7404EA5353136009E000F5D873AD
:100E700003EB01131B686FF0604404EAD303536073
:100E800000F5D87303EB01131B6803F002035372E0
:100E900000F5D87303EB01135B6803F00F03937243
:100EA00000F5D87303EB01135B681B0AD37400F5DC
:100EB000D87303EB01139B68D37200F5D87303EB6F
:100EC00001139B681C0A147300F5D87303EB01131C
:100ED0009B681C0C547300F5D87303EB01139B68DB
:100EE0001B0E937300F5D87303EB0113DB68D37308
:100EF00000F5D87303EB0113DB681C0A147400F5CA
:100F0000D87303EB0113DB681C0C547400F5D87321
:100F100003EB0113DB681B0E937421B9C36843F024
:100F20002003C36003E0036943F02003036110BDA5
:100F300010B502460020936803F08063B3F1806F20
:100F400000D110E0936803F00063B3F1006F01D1AA
:100F5000012008E0936803F08053B3F1805F01D172
:100F6000022000E00420042874D002F5C07303EBD3
:100F700000131B6803F0010402F5C07303EB0013B8
:100F80001C600B7A7BB94B7A0C8843EA445302F518
:100F9000C07404EB00142468234302F5C07404EB0E
:100FA0000014236010E00B7A4C6843EAC4034C7AC7
:100FB000234302F5C07404EB00142468234302F5B4
:100FC000C07404EB001423608B7A03F00F038B7260
:100FD00002F5C07303EB00135B6823F00F0402F506
:100FE000C07303EB00135C6002F5C07303EB0013E6
:100FF0005B688C7A234302F5C07404EB00146360D1
:101000008B7B1C064B7B44EA03440B7B44EA0323A3
:10101000CC7A234302F5C07404EB0014A3608B7CEC
:101020001C064B7C44EA03440B7C44EA0323CC7B40
:10103000234302F5C07404EB0014E36002F5C073AF
:1010400003EB00131B6843F0010402F5C07303EBCC
:1010500000131C6010BD000010B50246002321B132
:10106000012907D002290FD109E090681D4C00EA40
:1010700004030BE090681C4C00EA040306E090684F
:101080001A4C00EA040301E0002300BF00BF184C23
:10109000181BA34216D007DC83B16FF080601844A0
:1010A00070B1022818D111E0B0F5007F10D0114CBA
:1010B000204448B1B0F5003F0ED10BE002230DE013
:1010C00000230BE0002309E0002307E0012305E0F3
:1010D000012303E0012301E0002300BF00BFD8B2D9
:1010E00010BD00000300000400030008000003100E
:1010F000000100080001FFF72DE9F041074688468E
:1011000015460421052000F0C1FE0021012004F055
:10111000A5FC10B1FE20BDE8F08180210A2002F07C
:10112000C1FF002408E0395D092004F097FC08B1F4
:10113000FE20F0E7601CC4B24445F4DB032101202B
:1011400004F08CFC08B1FE20E5E7FF2400BF052079
:1011500002F0E2FD0646601EC4B21CB106F00400B7
:101160000028F4D0222002F0D7FD2870212002F0C0
:10117000D3FD68700020CEE72DE9FF4705460E46F7
:101180004FF0000A06B10DB94FF0010A94480078FB
:1011900000F00F00032801DD4FF0010A90480078AD
:1011A000C0F30019BAF1000F19D000208DF80A0021
:1011B0008DF80B0001208DF80C000020ADF8000028
:1011C000ADF80200ADF80400ADF80600ADF8080077
:1011D00001208DF80D006846FFF70CFDFEE00020B1
:1011E000ADF8080001208DF80D004FF00008002434
:1011F000F2E07B48007800F00F0030B101283BD0CE
:1012000002287BD0032874D19CE000208DF80B00CD
:101210008DF80C0035F824004B460022114600F0F2
:10122000E1F8ADF8020005EB840148884B46002246
:10123000114600F0D7F8ADF80600601CC0B20446B5
:10124000B04213DA35F824004B460022114600F074
:10125000C9F8ADF8000005EB840148884B46002230
:10126000114600F0BFF8ADF8040004E00020ADF82E
:101270000600ADF804009CE001208DF80B00002072
:101280008DF80C0035F824004B460022114600F082
:10129000A9F8ADF80200601CC0B20446B04207DAFB
:1012A00035F824004B460022114600F09BF800E080
:1012B0000020ADF80600601CC0B20446B04207DA58
:1012C00035F824004B460022114600F08BF800E070
:1012D0000020ADF80000601CC0B20446B04209DA3C
:1012E00035F824004B460022114600F07BF802E05E
:1012F00004E051E00020ADF804005AE000208DF831
:101300000B0001208DF80C0035F824004B4600221C
:10131000114600F081F80746B8B2ADF80200380C6B
:10132000ADF8000005EB840148884B4600221146C9
:1013300000F072F80746B8B2ADF80600380CADF808
:10134000040036E001208DF80B008DF80C0035F814
:1013500024004B460022114600F05EF80746B8B262
:10136000ADF80200380CADF80000601CC0B20446B5
:10137000B04208DA05EB840148884B46002211464A
:1013800000F04AF800E000200746B8B2ADF80600C9
:10139000380CADF804000CE00020ADF80200ADF808
:1013A0000000ADF80600ADF8040034464FF0010A25
:1013B00000BF00BF8DF80A806846FFF71BFCB442EF
:1013C00002DA601CC4B200E007E008F10100C0B21C
:1013D00080460D2800DB00E00BE700BFBDE8FF877B
:1013E000F803002010B50446C4F309040AB1102024
:1013F00000E0002002460BB1082000E00020034678
:1014000013B1C1F3C13000E00020014642EA4410AC
:101410001843084380B210BD10B50446C4F3090454
:101420000AB1022000E0002002460BB1042000E0D7
:101430000020034613B18803C00A00E000200146E3
:1014400042EA44301843084310BD000010B50021A3
:101450000148FFF7E6FC10BD0064004070B504468B
:10146000002554B100210648FFF7DBFC054625B1F5
:10147000224600210248FFF7E3FC284670BD000029
:10148000006400402DE9F04706460C461746984692
:10149000DDF820904FF0000A15480760C0F804807E
:1014A0000020134908724872084684722246314669
:1014B0000B30FEF787FE0E490E48FFF739FD054653
:1014C000042D09D04FF0010A29460A48FFF7C4FD50
:1014D000012801D14FF0020ABAF1010F04DBB9F182
:1014E000000F01D089F800505046BDE8F087000099
:1014F0008C070020006400400448006800F0E050C1
:1015000008B1012070470020FCE70000086400409B
:1015100000B500BFFFF7F0FF0028FBD000BD10B5FD
:1015200001E000F005F8FFF791FF0028F9D110BDA8
:1015300010B52448FFF792FF2248C07C20B1012853
:101540000AD0022818D10FE01E48827A00F10B0160
:101550001D4800F00AFE24E01A48827A00F10B01CF
:101560001A4800F002FE1CE01648827A00F10B01D6
:10157000174800F0FAFD14E01248C07C03280FDB86
:101580001048C07C06280BDC0E48C07CC01E1149E8
:1015900001EBC0000B490B310A68026049684160E9
:1015A00000BF00BF0748C07C062809DC0548C07C96
:1015B000094951F8200009490968084307490860AA
:1015C00010BD000000090020B4070020C40700205F
:1015D000E4070020140900200C5F0008FC03002031
:1015E00000B5034A5178107801F00EFC00BD0000F0
:1015F000140900207CB5012539E0002508221D4989
:101600001D4800F09DFDC4B25CB1FFF781FF01A849
:1016100000234FF47072214600901648FFF732FF06
:10162000012508221349154800F08AFDC4B25CB1B7
:10163000FFF76EFF01A800234FF4207221460090AF
:101640000C48FFF71FFF012508220A490C4800F04B
:1016500077FDC4B25CB1FFF75BFF01A800234FF434
:101660002872214600900348FFF70CFF0125002D4A
:10167000C3D17CBD00040020B4070020D4070020A3
:10168000F407002010B50D4A32210D4800F02AF869
:101690000C4A32210C4800F025F80C4A32210C4843
:1016A00000F020F80B4A32210B4800F01BF80B4ADF
:1016B00032210B4800F016F810BD0000040800208D
:1016C000B407002036080020C40700206808002066
:1016D000D40700209A080020E4070020CC0800204E
:1016E000F407002070B504460E4615462660E560F6
:1016F0000021204600F073FD70BD000038B5FFF7F3
:101700000EFF68E0FFF70BFF002462E0344850F85A
:101710002400344909680840002858D0072C4DD2CD
:10172000DFE804F0040C18242739460000BF69469E
:101730002D4800F066FD0028F9D13FE003E09DF858
:10174000000000F079FA6946284800F05AFD0028A8
:10175000F5D133E003E09DF8000000F0DBFA6946C4
:10176000234800F04EFD0028F5D127E0FFF738FFB1
:1017700024E0204803F062FD1F49088005E01E4870
:101780000088A0F561601C4908801B480088B0F5FE
:10179000616FF4DA12E017480838007C022806D19D
:1017A0001448093003F042FD00B21449088005E0F6
:1017B00010480838007E012800D100BF00BF104843
:1017C00050F8240007490968084006490860601C71
:1017D000C4B2062C9ADD03480068002892D138BDB7
:1017E0000C5F0008FC030020B4070020C4070020A1
:1017F000E40700201C0900200C0400200A0400203B
:101800008C5F000810B50020054908600549087084
:1018100007210548FFF7B0FCFFF734FF10BD0000BB
:10182000FC030020F80300200E04002010B5EE4851
:101830000078E0B1ED48006804F004FAB8B9EC486B
:101840000078FD2807D1EB480078401CC1B2E84879
:1018500002F00AFC08E0E6480078552802D101F0C1
:1018600077FD01E0FFF79EF80020DF490870E248AD
:101870000078012873D1DE484078AA2870D1DC486E
:10188000807829286DD018DC1A286CD00CDC11283F
:1018900037D004DC022872D0102871D126E012283B
:1018A0003DD01928F9D1D6E01B286DD01C2869D06D
:1018B0001D2868D01E28F0D1C4E0512836D00CDC99
:1018C00040282DD004DC3B287ED03D28E5D1D3E054
:1018D0004B287AD05028E0D123E061282BD0622811
:1018E0002ED0632831D08028D7D133E0C048C078CB
:1018F000C2490870BE4800794870BD484079887078
:10190000E1E0BB48C078BD49C870B94800790871AA
:10191000B748407948710120B9490860D3E0D2E066
:10192000D1E00421B74801F095FACCE00421B64893
:1019300001F090FAC7E00421B44801F08BFAC2E04C
:101940000421B34801F086FABDE00421B14801F05A
:1019500081FAB8E0A648C078AF490870B3E041E129
:10196000B2E09FE0FFE70520AC4908600120A449F0
:10197000086005220A21502000F02CFAA3E04FE075
:10198000A0E001E025E054E09948C0780009A449AE
:1019900008709748C07800F00F00487094480079AC
:1019A000000988709248007900F00F00C8709048D4
:1019B0004079000908718E484079000999490870FA
:1019C00005220A21502001E055E062E000F002FA11
:1019D00079E08748C0780009934908708448C07846
:1019E0000009924908708248C07800F00F004870E2
:1019F0007F480079000988707D48007900F00F0069
:101A0000C8707B484079000908717948407900F036
:101A10000F00487105220A21502000F0DBF952E046
:101A20007348C078814908700121804802F0F6FAB5
:101A300049E005220A21502000F0CCF9012070492C
:101A4000086040E005220A21502000F0C3F901207F
:101A50006B49086037E06649C87800F003FE4FF430
:101A6000967004F089F84FF4967004F085F8012020
:101A70006349086027E026E005220A21502000F093
:101A8000A9F94FF4487004F077F801205C49086028
:101A900019E005220A21502000F09CF90120584944
:101AA000086010E05249C87800F026FC4FF49670A8
:101AB00004F062F84FF4967004F05EF8012050498B
:101AC000086000E000BF8AE0494840780B2803D056
:101AD00047484078082839D145488078102806D0F2
:101AE000202809D0212816D040282ED125E0082111
:101AF0003F4802F0B9FA28E03D48C0784C490870E8
:101B00003B48007948703A48407988700821384845
:101B100002F0AAFA19E03648C0784549C87034483E
:101B2000007908713248407948710821304802F044
:101B30009BFA01203249086007E008212C4802F096
:101B400093FA01202E49086000BF48E028484078F9
:101B500004280FD12648807802280BD10821244878
:101B600002F082FA4FF4FA7004F006F801202449DA
:101B7000086034E01E4840780E2803D01C484078A6
:101B80000F2828D11A488078012804D10821184844
:101B900002F06AFA23E01648807802281FD1144820
:101BA000C078244908700821114802F05DFA4FF40A
:101BB000FA7003F0E1FF4FF4FA7003F0DDFF4FF429
:101BC000FA7003F0D9FF4FF4FA7003F0D5FF01204B
:101BD0000B49086003E00821054802F045FA00209F
:101BE0000549087010BD00006D0500208805002023
:101BF0005C0900206C050020900500209105002064
:101C0000F802002034040020380400203C040020A6
:101C100040040020440400207C050020F402002041
:101C200032030020BC020020BB0200203803002049
:101C3000970500209D05002010B504460F48007848
:101C400070B903F0F9FF0A300D49086000200D4912
:101C500008700D48097844540120084908700BE0C9
:101C600008480078C82807DA06480078401CC0B247
:101C70000449087004490C5410BD00006D05002093
:101C8000880500206C0500205C09002010B51C4868
:101C90000078002832D01B48006803F0D3FF68BBEF
:101CA00019480078552826D117484078022822D1B3
:101CB00015488078A12803D10120144908601AE052
:101CC00011488078922816D10F48C078012812D187
:101CD0000D4840790E4908700B48807948700A48D1
:101CE000C07988700848007AC8700748407A08713F
:101CF0000548807A487100200149087010BD000035
:101D00006F0500208C050020240A0020F802002026
:101D10009E05002010B504460F48007870B903F006
:101D20008BFF0A300D49086000200D4908700D48EE
:101D3000097844540120084908700BE008480078ED
:101D4000C82807DA06480078401CC0B20449087069
:101D500004490C5410BD00006F0500208C050020C4
:101D60006E050020240A00207FB505460C4601219F
:101D7000202001F0A5FE0295ADF804400020ADF84A
:101D80000600ADF80C008DF80E0001A90D4802F018
:101D90000BFB37208DF8000000208DF80100042097
:101DA0008DF8020001208DF80300684601F08AFAE0
:101DB00001221146034802F0EDFA0121014802F028
:101DC000CCFA7FBD0014004010B5FFF797FCFFF779
:101DD00011FC10BD2DE9F04107460C4615460026C2
:101DE00000BF0EE0012009490860384603F0C4FE38
:101DF00000200749C1F89402204603F0BDFE701C84
:101E000086B2AE42EEDBBDE8F08100009482434230
:101E1000008043421CB501214FF4C07001F040FE28
:101E2000F020009000208DF8040001208DF80700BC
:101E30006946144800F0D0FD4FF470400090012036
:101E40008DF8040000208DF8060001208DF80700B1
:101E500003208DF8050069460B4800F0BDFD2020E9
:101E6000009001208DF8040000208DF8060001206C
:101E70008DF8070003208DF805006946024800F040
:101E8000ABFD1CBD00200240001C024070B50546A1
:101E90000C460026284601F03FFF064626EA0401CC
:101EA000284603F0DBFD08B1FE2070BD0020FCE7F2
:101EB00070B505460C46002D06DB642D00DD64255B
:101EC000052D0BDA052509E015F1640F01DA6FF035
:101ED000630515F1050F01DD6FF00405002C06DB2D
:101EE000642C00DD6424052C0BDA052409E014F1D0
:101EF000640F01DA6FF0630414F1050F01DD6FF078
:101F000004042146284602F095F870BD10B52C480F
:101F10000078012817D1642003F02EFE32214620DC
:101F200000F06AFB4FF4967003F026FE002024496F
:101F300008704FF4FA7003F01FFE3C2000F024FDFF
:101F4000642003F019FE1F480078012811D14FF4D6
:101F5000967003F011FE00201A490870642003F007
:101F60000BFE40F21451462000F0D4FC642003F034
:101F700003FE15480078012811D1642003F0FCFD10
:101F8000642003F0F9FD00200F490870642003F07D
:101F9000F3FD3C2000F0F8FC642003F0EDFD0B485D
:101FA000007801280BD1002008490870642003F054
:101FB000E3FD012006490860642003F0DDFD10BD4B
:101FC00070050020710500207205002073050020B7
:101FD000F802002010B52DED068B102000F054F80B
:101FE000012835D1C1031C4800F061FD68BB002108
:101FF0001A4802F0B2F91A4890ED000AB8EE400A09
:10200000184880ED000A0068FEF78FFA41EC1A0BC1
:102010009FED150B53EC102BFEF7A6F941EC190BB5
:102020009FED130B53EC102BFEF798F941EC180BB6
:10203000FEF78EFA0B490860084690ED000ABCEEE8
:10204000C00A10EE100A0C490880102000F016F8A3
:10205000BDEC068B10BD00000000024000100040E7
:10206000640300206003002085EB51B81E85FB3F10
:102070000000000000002E406803002001490860B5
:1020800070470000143C014001460020034A1268DA
:102090000A400AB1012000E000207047143C0140D2
:1020A000002123498279002A3AD00A46126803683F
:1020B0009A430B461A600A1D126803689A430B1D67
:1020C0001A60027911440A6803681A430A60184AC0
:1020D0000832126803689A43154B08331A601A1DB8
:1020E000126803689A43124B0C331A604279102A23
:1020F0000ED11A1F126803681A430D4B08331A6079
:102100001A1D126803681A43094B0C331A600DE05C
:102110000749427911440A6803681A430A6005E0D6
:10212000027911440A6803689A430A607047000004
:10213000003C014010B501F033F9FEF753FB10BD30
:10214000F0B507460C461646002564B106E0611955
:10215000384600F056F800B904E06D1C301EA6F1B8
:102160000106F4D100BF2846F0BDF0B507460D4684
:102170001646002406E0295D384600F06CF800B9E8
:1021800004E0641C301EA6F10106F4D100BF204615
:10219000F0BD30B504460025204600F04AF870B185
:1021A000D4E90001401E814203D1A06838B1012565
:1021B00005E0D4E90101401C814200D001252846F8
:1021C00030BD30B504460025204600F032F820B17D
:1021D000D4E90110884200D00125284630BD70B5F1
:1021E00004460D4664B12068012809D90020A0608A
:1021F0002068401E60602A462168E068FDF7F4FF11
:1022000070BD70B504460D46002685B12046FFF727
:10221000C0FF60B16068401C60602168884201D3E3
:10222000002060606168E068405C287001263046EC
:1022300070BD0146002069B10A68012A0AD9CA683E
:1022400042B10B688A689A4204D2D1E900329A42BC
:1022500000D20120704770B504460D460026204686
:10226000FFF7AFFF58B1A168481CA060E068455473
:102270002168A068884201D30020A0600126304672
:1022800070BD000070B504460D4601F0D7FD00207A
:1022900010490870104908701049087010490870FA
:1022A0001049087001201049087000200F4908707B
:1022B0000F4805800F480460006841420D480068DF
:1022C0004042FFF7F5FD00BF024800780328FBD12C
:1022D00070BD0000D8030020CF030020CC030020F5
:1022E000CD030020CE030020D0030020D103002026
:1022F000E8030020E40300207CB504460BA103C9D9
:10230000CDE900018DF80340684600F013F8002580
:1023100008E00821684601F0A7FE322003F02CFCFB
:10232000681CC5B2022DF4DB7CBD0000550F020015
:10233000000000BB8278C3781A4403791A444379B9
:10234000D118CA1701EB12621212A1EB022282719C
:1023500070470000FEB5002002900190FE24142773
:10236000012500263C2002F07FFC04218CA001F016
:102370002FFEE6E0082000F0D1FBC0B28DF8080087
:102380009DF8080000F03C003C2856D1042186A0AE
:1023900001F01EFE00F054FA4FF4FA7003F0ECFB6B
:1023A000082000F0BBFBC0B28DF80900072000F048
:1023B000B5FBC0B28DF80A009DF80900FEF7F0FBEE
:1023C00003469DF80A00FEF7EBFB1844C0B20190EB
:1023D0004FF4FA7003F0D0FB4621084600F00CF9E8
:1023E000072000F09BFBC0B28DF808004FF4FA7094
:1023F00003F0C2FB9DF80800182813D09DF80800D0
:1024000008280FD09DF8080010280BD09DF8080070
:10241000182807D09DF808000C2803D09DF8080064
:1024200030280BD1062162A001F0D2FD0126002543
:1024300040F214513C2000F0DFF85CE09DF8080009
:1024400000F03C003C2856D14FF4FA7003F094FBA6
:102450004FF49671282000F0CFF84FF4FA7003F093
:102460008BFB4FF4FA7003F087FB42E06946522081
:1024700001F02BF90446BCBB504800785049087065
:10248000642003F079FB00F03BF94FF4FA7003F09D
:1024900073FB4FF4FA7003F06FFB042149A001F0C5
:1024A00097FD4FF4FA7003F067FB4FF4FA7003F0F6
:1024B00063FB012001F07EFE4FF4FA7003F05CFB39
:1024C0004FF4FA7003F058FB002001F073FE3F4810
:1024D00001F0AAFB03213EA001F07AFD4FF4FA704F
:1024E00003F04AFB002505E0FFE732215020FFF70B
:1024F000C9FEBBE700BF9DF8080008B9012000E055
:1025000000209DF80810012900D100E000210843B7
:1025100018B99DF80800802813D100F091F94FF404
:10252000FA7003F029FB4FF4FA7003F025FB052144
:1025300028A001F04DFD4FF4BE713C2000F05CF886
:102540000025002D7FF416AFFCB99DF80400022889
:102550000ADC052121A001F03BFDFFF7FBFE4FF453
:10256000FA7003F009FB0CE09DF80400032808DB77
:10257000D2201349087004211AA001F029FD00F0AF
:102580005FF9022101A801F06FFD012E06D100269E
:10259000092116A001F01CFDFFF7DCFEFEBD0000C6
:1025A0002831290A00000000A3A832A3A90A0000CC
:1025B000A3A8322D31A3A90A00000000A402002024
:1025C0009C020020A3A833A3A90A0000A8050020AC
:1025D0006F6B0A004E554C4C0A0000006C696E652A
:1025E0000A00000054454E0A0000000066696E644F
:1025F000636172640A00000070B504460D4601F084
:102600001DFC00200E49087001200E4908700020B2
:102610000D4908700D4908700D4908700D49087082
:102620000D4908700D4805800D4804600168006878
:10263000FFF73EFC00BF024800780328FBD170BDC5
:10264000D8030020CF030020CC030020CD030020BE
:10265000CE030020D0030020D1030020E803002097
:10266000E40300207CB504460BA103C9CDE90001B9
:102670008DF803406846FFF75DFE002508E008215D
:10268000684601F0F1FC322003F076FA681CC5B20E
:10269000022DF4DB7CBD0000550E0200000000BBE3
:1026A00010B5044600200E4908700E49087001203C
:1026B0000D49087000200D4908700D4908700D493A
:1026C00008700D4908700D480460016800684042B8
:1026D000FFF7EEFB00BF024800780228FBD110BDD7
:1026E000D8030020CF030020CC030020CD0300201E
:1026F000CE030020D0030020D1030020E4030020FB
:10270000F0B585B000253EA103C9CDE90201182628
:10271000002400273C480078E22807D106213BA08E
:1027200001F056FC02213AA001F052FCFE2504A85B
:1027300000F087FE0546002D5FD1FE25062135A05D
:1027400001F046FC642003F017FA04A801F026F813
:102750000546002D51D1FE25062130A001F038FCA0
:10276000642003F009FA04AB02AA3146602000F0AD
:10277000A3FE0546002D40D1FE25062129A001F02B
:1027800027FC642003F0F8F92849304600F073FF75
:10279000054645BBFE25062125A001F019FC642055
:1027A00003F0EAF9012024490860642003F0E4F909
:1027B000002407E01D4904F10800085C0DF804003E
:1027C000601CC4B2082CF5DB0821184801F000FC9D
:1027D0000821684601F0FCFB02210DA001F0F8FB86
:1027E000642003F0C9F9002405E01048005D134996
:1027F0000855601CC4B2102CF7DB05B0F0BD00001A
:10280000FFFFFFFFFFFF00009C02002073204F4BE3
:102810000A00000061204F4B0A00000050204F4B7F
:102820000A00000074204F4B0A000000A805002099
:1028300072204F4B0A00000024030020B80500203E
:1028400010B50021084601F0F5FB01F0B5FA10BD06
:1028500070B505460C4601F0F1FA00200D490870EC
:102860000D4908700D4908700D4908700D49087030
:102870000D4908700D4908700D49087003200D4975
:10288000087001200C4908700C4805600C48048051
:1028900070BD0000D8030020CF030020CC0300202F
:1028A000CD030020CE030020D0030020D103002060
:1028B000D2030020D3030020D4030020E40300202F
:1028C000E803002000210B4A11700B4A11700B4ADB
:1028D00011700B4A11700B4A11700B4A11700321D1
:1028E0000A4A11700A49086000BF024909780129A3
:1028F000FBD17047D8030020CF030020CC03002079
:10290000CD030020CE030020D0030020D1030020FF
:10291000E403002070B505460C4601F08FFA002054
:102920000D4908700D4908700D4908700D4908706F
:102930000D4908700D4908700D4908700D4908705F
:1029400002200D49087001200C4908700C480560F0
:102950000C48048070BD0000D8030020CF03002085
:10296000CC030020CD030020CE030020D0030020A4
:10297000D1030020D2030020D3030020D403002081
:10298000E4030020E803002000210B4A11700B4AE9
:1029900011700B4A11700B4A11700B4A11700B4ADF
:1029A000117001210A4A11700A49086000BF0249EA
:1029B00009780129FBD17047D8030020CF030020FC
:1029C000CC030020CD030020CE030020D003002044
:1029D000D1030020E4030020F0B50A4600210023C3
:1029E000002400BF3DE0012505FA01F3156805EA62
:1029F00003049C4234D105684F000326BE40B54312
:102A0000056015794E00B5400668354305601579B7
:102A1000012D02D01579022D16D185684F000326AD
:102A2000BE40B543856055794E00B5408668354354
:102A30008560456801268E40B543456045689679B6
:102A40008E40B6B235434560C5684F000326BE4090
:102A5000B543C560D5794E00B540C6683543C560FD
:102A6000491C1029BFD3F0BDF0B5002300244D0749
:102A7000ED0E02FA05F3CE1000F1200555F82650B0
:102A80004E07F70E0F26BE40B543CF1000F12006CB
:102A900046F82750CE1000F1200555F8265045EA9B
:102AA0000304CE1000F1200545F82640F0BD024693
:102AB000002013690B400BB1012000E0002070479B
:102AC000418370470183704710B502210848FDF724
:102AD00062FE0748FDF760FF00BF02210448FDF7D2
:102AE000CBFE0028F9D00248FDF7C2FE10BD000061
:102AF0000020014070B504460025002607E0FFF7DE
:102B0000E3FF0544052003F037F8701CC6B2A64267
:102B1000F5DBB5FBF4F080B270BD0000014600208B
:102B200021B107290AD008290ED10AE0074A5278B4
:102B3000064B1B7802EB032290B205E0034A507863
:102B400002E0024A107800BF00BF7047080400206E
:102B500010B515480078012810D101F04BF9134940
:102B6000098888421EDB00200F49087003201049A5
:102B700008700021084601F05DFA13E00D48007866
:102B800001280FD101F036F908490988884209DB8C
:102B900000200849087003200549087000210846F4
:102BA00001F048FA10BD0000CF030020E803002028
:102BB000D8030020D00300201CB50121822000F0A2
:102BC0006FFF4FF44060009001208DF8040000205A
:102BD0008DF8060001208DF8070003208DF8050010
:102BE00069460F48FFF7F8FE4FF4004000900120BF
:102BF0008DF8040000208DF8060001208DF80700F4
:102C000003208DF8050069460648FFF7E5FE002021
:102C1000054908600549C1F8AC02054908601CBDBA
:102C2000001C024000040240BC824042008043423B
:102C3000A882434200B589B00121212000F030FF75
:102C400009220B214248FFF70FFF09220C214048BF
:102C5000FFF70AFF4FF4C050079002208DF82000C4
:102C60008DF8210000208DF8220001208DF823002E
:102C700007A93748FFF7B0FE4FF4806007900120A6
:102C80008DF8200002208DF8210000208DF8220010
:102C900001208DF8230007A92E48FFF79DFE002094
:102CA00000F05EF80121480600F00AFF2A48FDF70F
:102CB00085FF00208DF8160001208DF817000020F8
:102CC0008DF8180001208DF8190000208DF81A00E9
:102CD00001208DF81B0000208DF812008DF81300E4
:102CE00001208DF8140002208DF815000720ADF8A2
:102CF000100004A91848FEF70AF800208DF80A0011
:102D00008DF80B0001208DF80C000020ADF80000BC
:102D1000ADF80200ADF80400ADF80600ADF808000B
:102D200001208DF80D006846FDF764FF12200B4965
:102D300008604860002048720872012088720022F2
:102D400002210548FDF7DAFFFEF75CFD09B000BD82
:102D500000000240001402400064004034090020DA
:102D600010B504462CB94FF480610548FFF7A8FE62
:102D700004E04FF480610248FFF7A4FE10BD00009C
:102D80000014024010B5FFF71FF810BD10B504463F
:102D90002CB14FF480710548FFF794FE04E04FF426
:102DA00080710248FFF78CFE10BD00000020024039
:102DB00010B54FF4E06000F0C1FAA82002F0BEFEAA
:102DC00001F062FD00F026F8FFF724F802F0DBFDC9
:102DD000FFF730FFFDF734FE01F096F8FFF7AAF990
:102DE00002F062FC07215320FEF7BEFF40F2CF71D4
:102DF000A72002F0EBFF40F2E731A72001F004FF2B
:102E000000F09FFF10BD0000014A10705170704724
:102E1000080400201CB50121402000F041FE4FF4C1
:102E20008070009001208DF8040000208DF80600CD
:102E300001208DF8070003208DF80500694603483E
:102E4000FFF7CAFD0120024908601CBD00180240BE
:102E5000A00243422DE9F041074688460020284958
:102E60000860092002F088FE01202649C1F8A0026E
:102E7000042002F081FE4FF40C7002F0B7FE002433
:102E80002EE0002528E0385D284100F0010676B9E3
:102E900000201B4908604FF4FA7002F0A7FE0120E1
:102EA0001849C1F8A0024FF4FA7002F09FFE012EFB
:102EB00010D10020124908604FF4FA7002F096FE1B
:102EC00001201049C1F8A00202F056FE4FF44870EC
:102ED00002F08CFE681CC5B2082DD4DB601CC4B2A5
:102EE0004445CEDB0020064908604FF40C7002F028
:102EF0007DFE01200349C1F8A002BDE8F081000079
:102F0000A00243420000434210B500F00BFC08B1A0
:102F1000FE2010BD00F082FA022002F02DFE00F02B
:102F200083FA412000F06AF808B1FE20F1E70120A1
:102F30000249087000F0EEFE0020EAE7A40300203A
:102F400010B52B48006878B900BF294800680028F0
:102F5000FBD02848006808B9012000E0002025497E
:102F600008603C20FFF79CFB2148001D006898B9D1
:102F700000BF1F48001D00680028FAD01D48001D32
:102F8000006808B9012000E000201A49091D086006
:102F90001949012000F03BFC15480830006888B949
:102FA00000BF1348083000680028FAD011480830E4
:102FB000006808B9012000E000200E4908310860CF
:102FC000FFF7C8F90A480C30006878B900BF084814
:102FD0000C3000680028FAD006480C30006808B9A8
:102FE000012000E0002003490C31086010BD000002
:102FF00010024442B08243423A01002010B5044618
:10300000412C3AD108210846FEF740FF3D2111200E
:1030100002F024FD08B1FE2010BD8621172002F029
:103020001DFD08B1FE20F7E77F21262002F016FDE6
:1030300008B1FE20F0E71E212D2002F00FFD08B19F
:10304000FE20E9E700212C2002F008FD08B1FE2057
:10305000E2E78D212A2002F001FD08B1FE20DBE726
:103060003E212B2002F0FAFC08B1FE20D4E70A2012
:1030700002F082FD00F0D8F901E0FF20CCE700204B
:10308000CAE702468A4201D9501A7047881AFCE7FB
:10309000002800DA4042704710B504463CB90020D1
:1030A0007F4908700021084600F0C4FFDCE00020E2
:1030B0007C490870E72C07D17B4800687B49086091
:1030C000794800687A490860F72C09D17648006889
:1030D00028307649086074480068323874490860BE
:1030E000EF2C09D1704800683238704908606E488A
:1030F000006828306E4908606E480078022842D087
:10310000F32C01D0FB2C0DD16748006832306749A1
:103110000860654800683C386549086000206549DA
:10312000087030E0F92C01D0FD2C0DD15E4800680C
:103130003C305E4908605C48006846385C4908607D
:1031400000205C4908701EE0FC2C0DD15648006838
:103150003C3056490860544800685A385449086061
:103160000020544908700EE0FE2C0CD14E48006837
:1031700050304E4908604C48006878384C49086027
:1031800001204C4908704B480078012842D0CF2CD0
:103190000DD1454800683230454908604248006812
:1031A0003C384249086000204249087032E09F2CB8
:1031B00001D0DF2C0DD13C4800683C303C49086010
:1031C0003948006846383949086000203949087094
:1031D00020E03F2C01D0BF2C0DD133480068463091
:1031E00033490860304800685A3830490860002088
:1031F000304908700EE07F2C0CD12B48006850300D
:103200002B4908602848006878382849086002205F
:1032100028490870FF2C24D12748008841F28831C2
:10322000884210DD0020244908800021084600F073
:1032300001FF00201A4908701E480078A0B9042038
:103240001849087010E01C480088401C1A49088082
:10325000154800681549086013480068144908605B
:1032600002E000201449088000F0C4FD13490988D9
:1032700088420DDB002012490870032009490870BC
:103280000020074908700021084600F0D3FE05E041
:103290000748016805480068FEF70AFE10BD0000F7
:1032A000D4030020D8030020E4030020DC03002026
:1032B000E0030020D5030020D6030020E80300200F
:1032C000CF03002070B5002100230F22C4781CB367
:1032D000174C246804F4E064C4F5E064C4F30721E7
:1032E000C1F10404E3B20A4144789C40E1B284781D
:1032F000144021430C07210E0E4C057861550478CB
:1033000004F01F050124AC4005786D11AD0005F1F6
:10331000E025C5F8004109E0047804F01F05012408
:10332000AC40054D0678761145F8264070BD00008A
:103330000CED00E000E400E080E100E00249014320
:10334000024A1160704700000000FA050CED00E031
:1033500000211148C079BB281CD10F4A92780E4B2E
:10336000DB781A440C4B1B791A440B4B5B79D01851
:10337000C21700EB12621212A0EB0222D1B2064871
:103380008079884203D10120044A107002E00020B5
:10339000024A1070704700005C0900209005002070
:1033A00010B52DED048BB0EE080A164880ED000A2A
:1033B00090ED000ADFED140A20EE200A80ED000AED
:1033C0009FED120A124880ED000A90ED000ADFED31
:1033D0000E0A20EE200A10EE101A0846FDF7A5F896
:1033E00041EC190B9FED0B0B53EC102BFDF72EF856
:1033F00041EC180BFDF7ACF805490860BDEC048BF7
:1034000010BD00007C0300200000C84200CC0D412C
:1034100078030020000000000070A74010B50321D1
:103420001420FEF733FD10BD10B5142000F074FC1D
:10343000044604F0030018B90321142000F032FE02
:1034400010BDF0B587B00646002708210846FEF7F4
:103450001DFD00210D2002F001FB10B1FE2007B080
:10346000F0BD80210E20FEF711FD93208DF80400A1
:1034700020208DF8050006A801AB022201A90090CA
:103480000C2000F050F8054685B9002407E001A89B
:10349000005D305501A8005D4740601CC4B2042C9B
:1034A000F5DB01A8005DB84200D0FE2580210E208A
:1034B00000F0F8FD2846D2E72DE9F04387B0064634
:1034C0000F46904699468DF804608DF805700024EB
:1034D00006E018F8041001AAA01C1154601CC4B224
:1034E000062CF6DB002407E019F8041001AA04F109
:1034F00008001154601CC4B2062CF5DB06A801AB11
:103500000C2201A900900E2000F00DF805462DB9FF
:10351000082000F001FC00F0080000B9FE25284654
:1035200007B0BDE8F0832DE9FE4F06468846914678
:103530009A46DDF830B0FE20029000200190009005
:103540000C2E06D00E2E09D11220019010200090D2
:1035500005E0772001903020009000E000BF00BF20
:10356000019840F08001022002F078FA10B1FE20AC
:10357000BDE8FE8F80210420FEF788FC0021012099
:1035800002F06CFA08B1FE20F2E780210A2000F078
:1035900089FD002508E018F80510092002F05EFA00
:1035A00008B1FE20E4E76D1C4D45F4D331460120FF
:1035B00002F054FA08B1FE20DAE70C2E03D1802184
:1035C0000D2000F06FFD4FF47A7500BF042000F06D
:1035D000A3FB04466D1E35B104F0010018B9009834
:1035E00020400028F2D080210D20FEF74FFC95B33B
:1035F000062000F091FB00F01B0068BB0020029049
:103600000198204000F0010008B1FF2002900C2E2C
:1036100024D10A2000F080FB04460C2000F07CFB43
:1036200000F007072FB1601E07EBC000CBF80000C9
:1036300002E0E000CBF8000004B90124122C00DD08
:103640001224002505E0092000F066FB0AF80500B9
:103650006D1CA542F7D301E0FE20029080210C20D2
:1036600000F020FD0021012002F0F8F908B1FE2051
:103670007EE702987CE7F0B587B005460E4630201D
:103680008DF804008DF805500DF10602022101A805
:10369000FDF732FD06A801AB042201A900900C2021
:1036A000FFF741FF074667B90698902809D1002423
:1036B00004E001A8005D3055601CC4B2102CF8DB9A
:1036C00000E0FE27384607B0F0BD70B588B006466A
:1036D0000C4608210846FEF7D9FB07210D2002F011
:1036E000BDF910B1FE2008B070BD0321142000F018
:1036F000D9FC8DF8086007A802AB012202A900904E
:103700000C20FFF710FF05464DB90798102806D189
:103710009DF8080020709DF80900607000E0FE250B
:103720002846E0E710B500F0D9FA08B1FE2010BD38
:103730000F21012002F092F908B1FE20F7E70A20DC
:1037400002F040FA3D21112002F088F908B1FE2074
:10375000EDE71E212D2002F081F908B1FE20E6E7F9
:1037600000212C2002F07AF908B1FE20DFE78D213C
:103770002A2002F073F908B1FE20D8E73E212B2061
:1037800002F06CF908B1FE20D1E74021152002F0CB
:1037900065F908B1FE20CAE70020C8E770B588B017
:1037A000054693208DF8080070208DF80900002050
:1037B0008DF80E0000240BE0295D02AAA01C115414
:1037C0009DF80E00295D48408DF80E00601CC4B2C3
:1037D000042CF1DB0DF10F02072102A8FDF78CFC90
:1037E00008210846FEF752FB07A802AB092202A9EE
:1037F00000900C20FFF797FE064626B90798182878
:1038000001D1002600E0FE26304608B070BDF0B5BC
:1038100087B006460F46A0208DF804008DF805609D
:103820000DF10602022101A8FDF766FC06A801AB16
:10383000042201A900900C20FFF775FE054645B94A
:103840000698042805D19DF8040000F00F000A280E
:1038500000D0FE250DBB002404E0385D01A9085509
:10386000601CC4B2102CF8DB05AA102101A8FDF7DA
:1038700043FC06A801AB122201A900900C20FFF71F
:1038800052FE054645B90698042805D19DF8040066
:1038900000F00F000A2800D0FE25284607B0F0BD32
:1038A00010B50320FFF726F9514908800846008823
:1038B00000F0A0FC4E4908804E4801884C48008822
:1038C000FFF7DFFB4C4908704A480088F0BB4B48C3
:1038D000D0ED000A4648008800EE100AB8EE400A13
:1038E00020EE800ABCEEC00A10EE100A40490880A3
:1038F0000846008800EE100AB8EE400A4048D0EDB5
:10390000000AB4EEE00AF1EE10FA03D200203D49BD
:10391000087016E03648008800EE100AB8EE400A3B
:103920003748D0ED000A30EE600ABCEEC00A10EE57
:10393000100A3449087008460078642801DD6420C4
:103940000870304800783049087000E004E008460C
:103950000178012000F04BFB2548008825490880AC
:10396000254800780A2842DD2448D0ED000A204886
:10397000008800EE100AB8EE400A20EE800ABCEE85
:10398000C00A10EE100A1A4908800846008800EEA6
:10399000100AB8EE400A1A48D0ED000AB4EEE00A68
:1039A000F1EE10FA03D200201649087016E0104814
:1039B000008800EE100AB8EE400A1148D0ED000A67
:1039C00030EE600ABCEEC00A10EE100A0D49087015
:1039D00008460078642801DD6420087009480078F2
:1039E0000949087008460178012000F000FB10BD6D
:1039F0008203002084030020860300207803002037
:103A00007C030020800300207403002010B586B0E2
:103A100004460121084600F043F80121102000F07F
:103A20006FF8072209211B48FFF71EF807220A2119
:103A30001848FFF719F84FF4C060049002208DF881
:103A4000140000208DF8160001208DF817000320C7
:103A50008DF8150004A90F48FEF7BEFF0094002062
:103A6000ADF80C000C20ADF80A000020ADF80800FD
:103A7000ADF80600ADF804006946074801F0A0FD66
:103A80000121054801F0BCFC00200449087006B083
:103A900010BD00000000024000100140A4030020FF
:103AA00029B1064A12680243044B1A6004E0034A33
:103AB00012688243014B1A607047000030380240A0
:103AC00029B1064A12680243044B1A6004E0034A13
:103AD00012688243014B1A60704700004038024070
:103AE00029B1064A12680243044B1A6004E0034AF3
:103AF00012688243014B1A60704700002038024070
:103B000029B1064A12680243044B1A6004E0034AD2
:103B100012688243014B1A6070470000443802402B
:103B200029B1064A12680243044B1A6004E0034AB2
:103B300012688243014B1A6070470000243802402B
:103B4000F0B5002100220024022500260223324F76
:103B50003F6807F00C0121B1042905D0082937D1AD
:103B600005E02E4F076036E02D4F076033E02A4F07
:103B70003F1F3F68C7F38056274F3F1F3F6807F03E
:103B80003F036EB1264FB7FBF3F7DFF88CC0ACF103
:103B9000040CDCF800C0CCF3881C07FB0CF40CE030
:103BA0001E4FB7FBF3F7DFF870C0ACF1040CDCF884
:103BB00000C0CCF3881C07FB0CF4174F3F1F3F6875
:103BC000C7F301477F1C7D00B4FBF5F7076002E0F7
:103BD000124F076000BF00BF0F4F3F6807F0F001B2
:103BE0000909104F7A5C0768D74047600A4F3F6861
:103BF00007F4E051890A0B4F7A5C4768D740876029
:103C0000054F3F6807F46041490B064F7A5C4768EF
:103C1000D740C760F0BD0000083802400024F4001F
:103C200040787D01BC03002070B586B006460025B3
:103C30001022314601A8FCF7C5FA01A8FCF7E6FA04
:103C40000546062D1CD1002404E001A8005D1B4997
:103C50000855641CAC42F8DB184800781849C87055
:103C60001648407808711548807848711348C07824
:103C7000887112480079C8711048407908721BE0B9
:103C8000042D19D1002403E0305D0E490855641C51
:103C9000AC42F9DB0B4800788DF8140009484078F5
:103CA0008DF8150005A801F012FF074908700548B6
:103CB000C07830380549086006B070BDE9020020C0
:103CC000DC020020EF020020E80200209802002021
:103CD0000148007870470000A403002038B5FE2595
:103CE000002412E0552000F0CBF942F21071684632
:103CF00000F034F838B9552000F0C2F9642001F022
:103D00003BFF002503E0601C84B2642CEADB00BFAB
:103D100068B238BD0020704738B5044604F03F0053
:103D200040F08004204600F0ABF942F21071684682
:103D300000F014F805460DB1FF2038BD9DF80000D5
:103D4000FBE710B54FF41650FFF760FE4FF4FA7022
:103D500001F012FFFFF7D8F810BD000070B504465F
:103D60000D4601F069FF4FF4FA61B5FBF1F1461819
:103D70000AE00A48008800F0200028B1074801F056
:103D800089FC2070002070BD304601F05BFF0028E8
:103D9000EFD1034908700120F5E700000010014051
:103DA000A403002010B501F09BF8FEF7D1FE02F04D
:103DB0005BF802F03BF810BD002007490870074986
:103DC00008700749087007490870074908700749D3
:103DD0000870074908807047CC030020CD030020FD
:103DE000CF030020D0030020D1030020D8030020FF
:103DF000E80300200F48B0F900000F4AB2F9002094
:103E0000904207DD0B48B0F900000B4AB2F90020E0
:103E1000811A06E00848B0F90000064AB2F900200D
:103E2000811AB1F5004F02D94FF6FF70411A88B2DE
:103E3000704700000A040020F00300200248B0F997
:103E400000000249088070470A040020F0030020A7
:103E50001CB54020009000208DF8040001208DF852
:103E6000070069460148FEF7B7FD1CBD000402408B
:103E70001CB54020009001208DF8040000208DF832
:103E8000060003208DF8050069460248FEF7A4FDF0
:103E90001CBD00000004024070B50546002400BFB0
:103EA0001AE005FA04F000F0800018B1012013496F
:103EB000086002E0002011490860002010490860F5
:103EC000012001F093FE012001F090FE01200D4938
:103ED000C1F8A802601CC4B2082CE2DB002008492B
:103EE000091D0860012001F081FE012001F07EFE25
:103EF00001200449C1F8AC0270BD0000BC82404200
:103F0000A8824342008043421CB54FF4E13001F0E7
:103F100011FA01210220FFF7C3FD4FF40070009059
:103F200001208DF8040000208DF8060001208DF896
:103F3000070003208DF8050069460448FEF74CFD94
:103F40004FF400710148FEF7BDFD1CBD00040240A6
:103F500030B500228B071C0F0F2303FA04F20B4B22
:103F60008C1053F824309343084C8D1044F82530BE
:103F700023468C1053F824308C07240F00FA04F4E5
:103F80002343024C8D1044F8253030BD08380140E1
:103F90001CB501210420FFF783FD4FF40050009071
:103FA00001208DF8040000208DF8060001208DF816
:103FB000070003208DF8050069460348FEF70CFD55
:103FC0000020024908601CBD00080240B4024142C2
:103FD00038B504460D46FDF79BFA002003464FF422
:103FE0007072294600902046FDF74CFA38BD7CB52A
:103FF00005460C4603208DF8040001208DF80500CD
:104000008DF80640FDF784FA002003464FF4F07265
:104010000321009001A8FDF735FA7CBD70B5044678
:104020000D462A4621460248FEF79FF870BD000063
:10403000B40700207CB505460C46E8B28DF80400B4
:10404000E8B28DF80500E0B28DF80600E0B28DF818
:104050000700FDF75DFA00200346202204210090AE
:1040600001A8FDF70FFA7CBD70B504460D462A463F
:1040700021460248FEF779F870BD0000F4070020E1
:1040800010B504460648008800BF0548008800F0C7
:1040900080000028F9D02146014801F000FB10BD46
:1040A0000010014070B505460C4600262846FFF773
:1040B00033FE064646EA0401284601F0CFFC08B16B
:1040C000FE2070BD0020FCE70CB5002001900090A0
:1040D0003448006840F480303249086000BF3148FD
:1040E000006800F4003000900198401C0190009896
:1040F00018B90198B0F5A04FF1D12A48006800F432
:10410000003010B10120009001E0002000900098E4
:10411000012846D123484030006840F080502149B2
:10412000403108602048006840F440401E49086063
:104130001C48083000681B490831086008460068C0
:1041400040F4004008600846006840F4A050086051
:104150001648091F0860081F006840F08070091F9A
:10416000086000BF0F48006800F000700028F9D018
:1041700040F205700E4908600A480830006820F0D7
:1041800003000849083108600846006840F0020052
:10419000086000BF03480830006800F00C000828E1
:1041A000F8D10CBD0038024000700040195440079F
:1041B000003C024010B50446012C04D141030548DF
:1041C000FEF77EFC05E024B94FF400510148FEF7EC
:1041D00079FC10BD0008024010B50446FCF7ACFCA9
:1041E0004620FCF77DFC2046FCF77AFCFCF7C0FC7F
:1041F00010BD000010B5024600230B48828200214A
:104200000BE0094C481C34F8100024F8110020463B
:1042100030F81100184483B2491C0A29F1DB0A2046
:1042200093FBF0F080B210BD4C070020042808D1A9
:104230004FF0E021096941F004014FF0E0221161E3
:1042400007E04FF0E021096921F004014FF0E0227E
:104250001161704710B51548006840F470001349AB
:1042600008601348006840F0010011490860002010
:104270000F49083108600E4800680E4908400C4993
:1042800008600D48091D0860081F006820F48020A0
:10429000091F0860002006490C310860FFF714FF71
:1042A0004FF0006001498039086010BD88ED00E0E2
:1042B00000380240FFFFF6FE1030002410B5012147
:1042C000054800F056F8012801D1FFF76BFD0121E8
:1042D000014800F03FF810BD0040014010B5012139
:1042E000074800F046F8012804D106480068401C41
:1042F000044908600121024800F02CF810BD0000BC
:1043000000440140B403002010B50121074800F02B
:1043100030F8012804D106480068401C04490860B0
:104320000121024800F016F810BD00000010004006
:104330006403002010B50121054800F01AF8012897
:1043400001D1FEF71FFD0121014800F003F810BD67
:1043500000140040CA430282704721B1028842F033
:104360000102028004E002884FF6FE731A400280C8
:10437000704730B50246002000230024158A05EA64
:104380000103958905EA010413B10CB1012000E095
:10439000002030BD1AB183890B43838102E08389F9
:1043A0008B4383817047000000220288184B98429B
:1043B0000ED0184B98420BD0B0F1804F08D0164B5E
:1043C000984205D0154B984202D0154B984204D123
:1043D0004FF68F731A404B881A43124B984207D0FE
:1043E000114B984204D04FF6FF431A400B891A43F1
:1043F00002804B68C3620B880385054B984202D04C
:10440000044B984201D18B7A038601238382704743
:10441000000001400004014000040040000800408A
:10442000000C0040001000400014004010B504468D
:10443000FF2C0DD1012083490870002082490870AB
:1044400001208249087000210846FFF7F3FDF7E0DC
:10445000182C07D0082C05D00C2C03D0102C01D020
:10446000302C0FD101207A4908707A490870002059
:104470007549087001207549087000210846FFF74A
:10448000D9FDDDE03F2C05D0FC2C03D03C2C01D025
:10449000782C0DD101207049087000206A490870FD
:1044A00001206A49087000210846FFF7C3FDC7E0F4
:1044B0002CB17E2C03D07F2C01D0FE2C0DD10120FD
:1044C0006549087000206049087001205F49087044
:1044D00000210846FFF7AEFDB2E01E2C03D01C2CD5
:1044E00001D0382C0FD10120594908705949087062
:1044F00000205549087001205449087000210846E1
:10450000FFF798FD9CE0E72C08D154480068544917
:104510000860524800685349086088E0F72C0AD1C7
:104520004E4800681E304E4908604C4800682838E4
:104530004C4908607BE0EF2C0AD1484800682838D5
:1045400047490860454800681E30464908606EE0EB
:10455000F32C01D0FB2C0AD1404800681E304049A2
:1045600008603E48006828383E4908605FE0F92C42
:1045700001D0FD2C0AD1394800683C303849086028
:104580003648006846383749086050E0FC2C0AD1AC
:10459000324800683C3032490860304800685A3878
:1045A0003049086043E0FE2C0AD12C4800685030A6
:1045B0002B4908602948006878382A49086036E0A5
:1045C000CF2C0AD1254800681E30264908602348B0
:1045D000006828382249086029E09F2C01D0DF2C90
:1045E0000AD11E4800683C301E4908601B4800681C
:1045F00046381B4908601AE03F2C01D0BF2C0AD175
:1046000016480068463017490860144800685A3850
:10461000134908600BE07F2C09D110480068503026
:10462000104908600D48006878380D490860064850
:10463000007828B10B48016809480068FDF738FC8C
:1046400010BD000074050020D1030020D803002015
:10465000750500207A05002077050020E40300207E
:10466000DC030020E003002010B53048007801286A
:1046700014D14FF4967001F07FFA4FF4967001F068
:104680007BFA0020294908704FF4FA7001F074FA9F
:104690003C20FEF717F9642001F06EFA24480078F8
:1046A000012814D14FF4967001F066FA00202049D9
:1046B0000870642001F060FA4FF47A713C20FEF734
:1046C000C7F801201B490870642001F055FA1A4808
:1046D0000078012811D1642001F04EFA642001F025
:1046E0004BFA002014490870642001F045FA3C2080
:1046F000FEF7E8F8642001F03FFA1048007801283E
:1047000012D100200D4908704FF4FA7001F034FA0C
:104710004FF4AF713C20FDF76FFF0120084908609E
:104720004FF4FA7001F028FA10BD00007405002063
:10473000750500207A050020760500207705002009
:10474000F802002010B50446182C08D1384800683B
:1047500038490860364800683749086047E0082C47
:1047600003D00C2C01D01C2C0AD1314800681E301B
:10477000304908602E48006828382F49086036E024
:10478000042C01D0062C0AD1294800682830294978
:104790000860274800683C382749086027E0102C4B
:1047A00003D0302C01D0382C0AD1214800681E38A3
:1047B000204908601E48006828301F49086016E03C
:1047C000202C01D0602C0AD1194800683C381949C6
:1047D00008601748006828301749086007E0144847
:1047E0000068144908601248006813490860FFF720
:1047F00001FB12490988884213DB00201049087028
:1048000003201049087000200F4908700021084655
:10481000FFF710FC01200D49087000200C490870BA
:1048200005E00548016803480068FDF741FB10BD3D
:10483000E4030020DC030020E0030020E803002064
:10484000CF030020D8030020D403002076050020E9
:10485000D30300201CB501210420FFF721F94FF4F8
:104860000050009001208DF804008DF80700694683
:104870000448FEF7B1F84FF400510248FEF722F960
:104880001CBD00000008024010B500F011F8FFF751
:10489000E1FF00F023F8FFF77BFBFEF78DF9012025
:1048A00002490860FF20FFF7F7FA10BDB402414249
:1048B0001CB501214020FFF7F3F84FF48070009001
:1048C00000208DF8040001208DF807006946024899
:1048D000FEF782F81CBD0000001802401CB5012143
:1048E0008020FFF7DDF84FF44060009001208DF844
:1048F00004008DF8070069460448FEF76DF84FF490
:1049000040610248FEF7DEF81CBD0000001C0240BA
:1049100010B504463CB900206E49087000210846D5
:10492000FFF788FBBBE000206B490870E72C07D13C
:104930006A4800686A490860684800686949086010
:10494000F72C09D16548006828306549086063483C
:104950000068323863490860EF2C09D15F4800686D
:1049600032385F4908605D48006828305D4908605A
:104970005D480078022842D0F32C01D0FB2C0DD1E9
:1049800056480068323056490860544800683C3840
:104990005449086000205449087030E0F92C01D0D7
:1049A000FD2C0DD14D4800683C304D4908604B4806
:1049B000006846384B49086000204B4908701EE0EB
:1049C000FC2C0DD1454800683C30454908604348FF
:1049D00000685A38434908600020434908700EE0D7
:1049E000FE2C0CD13D48006850303D4908603B48E2
:1049F000006878383B49086001203B4908703A4814
:104A00000078012842D0CF2C0DD1344800683230D4
:104A100034490860314800683C383149086000205A
:104A20003149087032E09F2C01D0DF2C0DD12B488A
:104A300000683C302B4908602848006846382849FF
:104A4000086000202849087020E03F2C01D0BF2CCE
:104A50000DD1224800684630224908601F4800688E
:104A60005A381F49086000201F4908700EE07F2C4B
:104A70000CD11A48006850301A490860174800687D
:104A8000783817490860022017490870FF2C03D1B5
:104A900000210846FFF7CEFA00200E490870FFF704
:104AA000A9F91249098888420DDB002010490870D5
:104AB00003200949087000200E49087000210846AB
:104AC000FFF7B8FA05E00748016805480068FDF7F8
:104AD000EFF910BDD3030020D8030020E403002029
:104AE000DC030020E0030020D5030020E8030020C1
:104AF000CF030020D403002010B50446182C08D1A1
:104B00003848006838490860364800683749086006
:104B100047E0082C03D00C2C01D01C2C0AD13148C2
:104B200000681E30304908602E48006828382F4938
:104B3000086036E0042C01D0062C0AD12948006810
:104B4000283029490860274800683C382749086010
:104B500027E0102C03D0302C01D0382C0AD121486A
:104B600000681E38204908601E48006828301F4928
:104B7000086016E0202C01D0602C0AD1194800688A
:104B80003C38194908601748006828301749086000
:104B900007E0144800681449086012480068134987
:104BA0000860FFF727F912490988884213DB0020C3
:104BB0001049087003201049087000200F49087040
:104BC00000210846FFF736FA01200D490870002041
:104BD0000C49087005E00548016803480068FDF7C6
:104BE00067F910BDE4030020DC030020E00300208F
:104BF000E8030020CF030020D8030020D4030020C6
:104C000072050020D30300207FB505460C46012124
:104C10004804FEF775FF0295ADF804400020ADF89A
:104C20000600ADF80C008DF80E0001A90D48FFF745
:104C3000BBFB19208DF8000000208DF80100062034
:104C40008DF8020001208DF803006846FEF73AFB5C
:104C5000012211460348FFF79DFB01210148FFF7A0
:104C60007CFB7FBD004401400021094A1170094AC4
:104C70001170094A1170094A1170094A1170094AE4
:104C800011700221084A117008490860704700003D
:104C9000D8030020CF030020CC030020CD03002048
:104CA000CE030020D0030020D1030020E403002025
:104CB00010B50446FF2C0DD1012081490870002059
:104CC0008049087001208049087000210846FFF7DC
:104CD000B1F9F3E0182C07D0082C05D00C2C03D028
:104CE000102C01D0302C0DD1012078490870002003
:104CF0007449087001207449087000210846FFF7C4
:104D000099F9DBE03F2C05D0FC2C03D03C2C01D0E2
:104D1000782C0DD101206E49087000206949087077
:104D200001206949087000210846FFF783F9C5E0B2
:104D30002CB17E2C03D07F2C01D0FE2C0DD1012074
:104D40006349087000205F49087001205E490870BF
:104D500000210846FFF76EF9B0E01E2C03D01C2C92
:104D600001D0382C0DD10120594908700020554937
:104D7000087001205449087000210846FFF75AF9CD
:104D80009CE0E72C08D1534800685349086051481B
:104D900000685249086088E0F72C0AD14D48006845
:104DA0001E304D4908604B48006828384B49086060
:104DB0007BE0EF2C0AD14748006828384649086054
:104DC000444800681E30454908606EE0F32C01D06D
:104DD000FB2C0AD13F4800681E303F4908603D481F
:104DE000006828383D4908605FE0F92C01D0FD2CAF
:104DF0000AD1384800683C303749086035480068B7
:104E000046383649086050E0FC2C0AD13148006829
:104E10003C30314908602F4800685A382F490860F3
:104E200043E0FE2C0AD12B48006850302A49086024
:104E30002848006878382949086036E0CF2C0AD124
:104E4000244800681E302549086022480068283838
:104E50002149086029E09F2C01D0DF2C0AD11D4890
:104E600000683C301D4908601A48006846381A49F5
:104E700008601AE03F2C01D0BF2C0AD11548006809
:104E8000463016490860134800685A3812490860CD
:104E90000BE07F2C09D10F48006850300F490860A3
:104EA0000C48006878380C4908600648007828B13A
:104EB0000A48016808480068FCF7FAFF10BD0000C6
:104EC00070050020D1030020D803002071050020C8
:104ED00073050020E4030020DC030020E003002031
:104EE00010B527480078012806D10820FDF716FEE6
:104EF000C4B22046FFF7DCFE21480078022806D124
:104F00000820FDF70BFEC4B2204600F03FF81C4815
:104F10000078032806D10820FDF700FEC4B2204621
:104F2000FFF784FA17480078012806D10820FDF71A
:104F3000F5FDC4B22046FFF7EBFC124800780228CA
:104F400006D10820FDF7EAFDC4B22046FFF7D4FDE4
:104F50000C480078032806D10820FDF7DFFDC4B215
:104F60002046FFF7EFFB08480078012806D108200B
:104F7000FDF7D4FDC4B22046FEF78EF810BD000048
:104F8000D1030020D3030020D403002010B5044631
:104F900054B900209E49087001209E4908700021E4
:104FA0000846FFF747F829E1FE2C03D0FC2C01D07E
:104FB000F82C0AD100209649087001209549087004
:104FC00000210846FFF736F818E17F2C03D03F2C6C
:104FD00001D01F2C0AD100208D49087001208D4975
:104FE000087000210846FFF725F807E17E2C01D064
:104FF0003C2C0AD1002086490870012085490870A0
:1050000000210846FFF716F8F8E07C2C0AD10020B2
:105010007F49087001207F49087000210846FFF78A
:1050200009F8EBE03E2C01D01E2C0AD10020784973
:10503000087001207749087000210846FEF7FAFF42
:10504000DCE0002073490870E72C07D17248006843
:10505000724908607048006871490860F72C09D1EE
:105060006D48006828306D4908606B480068323828
:105070006B490860EF2C09D16748006832386749EE
:105080000860654800682830654908606548007810
:10509000022842D0F32C01D0FB2C0DD15E480068D1
:1050A00032305E4908605C4800683C385C49086002
:1050B00000205C49087030E0F92C01D0FD2C0DD1A6
:1050C000554800683C3055490860534800684638E8
:1050D000534908600020534908701EE0FC2C0DD194
:1050E0004D4800683C304D4908604B4800685A38CC
:1050F0004B49086000204B4908700EE0FE2C0CD193
:105100004548006850304549086043480068783891
:10511000434908600120434908704248007801284B
:1051200042D0CF2C0DD13C48006832303C49086059
:10513000394800683C38394908600020394908700E
:1051400032E09F2C01D0DF2C0DD1334800683C3079
:10515000334908603048006846383049086000200C
:105160003049087020E03F2C01D0BF2C0DD12A48D7
:10517000006846302A490860274800685A3827499D
:1051800008600020274908700EE07F2C0CD12248CF
:1051900000685030224908601F48006878381F496D
:1051A000086002201F490870FF2C24D11E48008887
:1051B00041F28831884210DD00201B49088000211F
:1051C0000846FEF737FF002011490870154800789F
:1051D000A0B904200F49087010E013480088401C53
:1051E000114908800C4800680C4908600A480068AA
:1051F0000B49086002E000200B4908800448007851
:1052000028B10748016805480068FCF751FE10BD49
:10521000D1030020D8030020E4030020DC03002099
:10522000E0030020D5030020D60300200246002121
:105230005178107840EA0121084670470246002163
:105240001178507840EA01210846704710B50248AD
:1052500000F0F2FA10BD0000BC06002010B51248A4
:10526000007800BB40F22551104800F05AF901289F
:1052700019D10E4800F00EFA0D490E4A12788854E2
:105280000C480078401C0B4908700846007802283A
:1052900004DB0020087001200349087040F225510A
:1052A000024800F09EF810BD6A0300200010014083
:1052B0006C0300206B03002010B540F22551184804
:1052C00000F02FF901282AD11648007890B900F093
:1052D000B3FC0A30144908600020144908701048D3
:1052E00000F0D8F91249114A1278885401200D496A
:1052F00008700FE00D480078C8280BDA084800F065
:10530000C9F9C1B209480078401CC0B2074A107000
:10531000074A115440F22551014800F062F810BDCF
:10532000004400406D050020880500206C05002029
:105330005C09002010B586B0044601210420FEF768
:10534000AFFB01212020FEF7DBFB082206211E48CF
:10535000FDF78AFB082207211B48FDF785FBC020CB
:10536000049002208DF8140000208DF81600012012
:105370008DF8170003208DF8150004A91248FDF7D9
:105380002BFB124800F048F800940020ADF80C0008
:105390000C20ADF80A000020ADF80800ADF80600BA
:1053A000ADF804006946094800F00AF940210748B1
:1053B00000F00EF82021054800F00AF8012103480A
:1053C00000F01EF806B010BD0008024000140140B5
:1053D00001F40072B2F5007F00D100BFCA43028021
:1053E000704710B50022002340F66A14A14200D194
:1053F00000BF0A1201249440A3B2DC43048010BD14
:1054000021B1828942F40052828104E082894DF602
:10541000FF731A408281704710B5044632488442B7
:1054200008D101211020FEF77BFB00211020FEF7A0
:1054300077FB57E02D48844209D101214804FEF74B
:105440004FFB00214FF40030FEF74AFB4AE02848AA
:10545000844209D101218804FEF742FB00214FF468
:105460008020FEF73DFB3DE02248844209D1012126
:10547000C804FEF735FB00214FF40020FEF730FB97
:1054800030E01D48844209D101210805FEF728FBC0
:1054900000214FF48010FEF723FB23E017488442DD
:1054A00008D101212020FEF73BFB00212020FEF740
:1054B00037FB17E01248844209D101218807FEF723
:1054C0000FFB00214FF08040FEF70AFB0AE00D4879
:1054D000844207D101214005FEF702FB002160054F
:1054E000FEF7FEFA10BD000000100140004400402D
:1054F00000480040004C00400050004000140140B3
:1055000000780040007C004002460020B1F5007F9A
:1055100000D100BF13880B400BB1012000E0002038
:10552000704770B50246002400230025002040F695
:105530006A16B14200D100BFC1F3421501F01F034A
:10554000012606FA03F3012D02D19689334006E0C5
:10555000022D02D1168A334001E0968A33400C12A4
:10556000012606FA04F41688344013B10CB1012068
:1055700000E0002070BDF0B50346002400260025A1
:10558000002040F66A17B94200D100BF1846C1F3A7
:10559000421401F01F06012707FA06F5012C01D17C
:1055A0000C3004E0022C01D1103000E014301AB1AC
:1055B00007682F43076002E00768AF430760F0BD4C
:1055C0002DE9FF4705460E460024A14600BFA04630
:1055D000B08900B100BF2C8A24F44054F088044301
:1055E0002C82AC8941F20C608443B0883189084335
:1055F000718908430443AC81AC8A24F44074B089B7
:105600000443AC826846FEF79BFA2048854202D0EC
:105610001F48854202D1DDF80C9001E0DDF80890CA
:10562000A88900F4004040B109EBC90000EB091063
:1056300031684900B0FBF1F707E009EBC90000EB66
:10564000091031688900B0FBF1F76420B7FBF0F076
:1056500004012009642101FB1078A88900F40040AE
:1056600040B1322000EBC800B0FBF1F000F00700C1
:10567000044308E0322000EB08106421B0FBF1F095
:1056800000F00F0004432C81BDE8FF8700100140AB
:105690000014014001468888C0F308007047C1F338
:1056A000080282807047000010B512481249C1F804
:1056B000B00032211048C0F8B4100021C0F8B81072
:1056C000C0F8BC10C0F8C0100C49C0F8C4100221CA
:1056D000C0F8C8100021C0F8CC10C0F8D010C0F835
:1056E000D410042180F8D81000200549087000F07B
:1056F00009F810BDD80500200C0600206F0300201B
:105700006E03002000B587B0012140F20910FEF7BA
:10571000C7F901214FF42020FEF7D2F90822002119
:105720004048FDF7A1F9072206213F48FDF79CF903
:1057300000208DF81A0001208DF81B0002208DF842
:1057400018000120059002208DF8190005A93548A0
:10575000FDF742F902208DF818004020059005A9B8
:105760003148FDF739F900208DF81A0001208DF835
:105770001B008DF818000002059002208DF819001A
:1057800005A92A48FDF728F90020FDF7FFFA4FF494
:10579000E13001900020ADF80800ADF80A00ADF846
:1057A0000C00ADF810000820ADF80E0001A920484B
:1057B000FFF706FF01211E48FFF722FE34208DF877
:1057C000000000208DF8010002208DF80200012069
:1057D0008DF803006846FDF775FD4FF4E130019048
:1057E0000420ADF80E0001A91248FFF7E9FE2620BB
:1057F0008DF8000000208DF801008DF802000120D6
:105800008DF803006846FDF75DFD012240F2255149
:105810000848FFF7B0FE01210648FFF7F1FD07B089
:1058200000BD000000000240000C024000200240C9
:10583000004C00400044004010B5044694F8281085
:10584000374A52F8210040F22771FFF76AFE18B379
:10585000E068401CE060D4E90210884209D2E168A7
:105860002068405C94F828102D4A52F82110888056
:1058700009E094F828102A4A52F82100002240F248
:105880002771FFF778FE94F82810254A52F8210076
:1058900040F22771FFF7A5FD94F82810204A52F82E
:1058A000210040F22551FFF73CFE30B300F0C4F96F
:1058B000606294F828001A4951F82000808819493C
:1058C000087094F82810164A52F8210040F2255129
:1058D000FFF787FDD4E90610884207D21148017806
:1058E000E269501CE0616069815406E00E49206A5B
:1058F000884202D2206A401C206294F82810084A8C
:1059000052F821000821FFF7FFFD38B194F8280074
:10591000034951F8200080880449087010BD000038
:105920008C03002088030020F0FFFF7F8903002004
:105930000EB54FF44070FDF701FD01218803FEF71D
:10594000DFF804210120FEF703FB10200190002066
:105950008DF808000C208DF8090001208DF80A0050
:1059600001A8FCF79DFB0A208DF8000000208DF8AF
:10597000010007208DF8020001208DF80300684621
:10598000FDF7A0FC0EBD10B500F008F8532109206A
:1059900000F038F8FFF7CCFF10BD00001CB5012166
:1059A0000320FEF77DF800220E211448FDF75CF875
:1059B00000220D211148FDF757F81020009001201A
:1059C0008DF8040000208DF8060001208DF80700F6
:1059D00003208DF8050069460948FCF7FDFF4FF4E8
:1059E0000040009000208DF8040001208DF8070091
:1059F00069460248FCF7F0FF1CBD000000000240B1
:105A0000000402407FB505460C4601211020FEF738
:105A100057F80295ADF804400020ADF8060001A942
:105A20000D48FEF7C1FC36208DF8000000208DF8EF
:105A3000010008208DF8020001208DF8030068465F
:105A4000FDF740FC012211460348FEF7A3FC0021AC
:105A50000148FEF782FC7FBD00100040F8B5044607
:105A60000D46032704F03F04002719E02046FEF707
:105A700007FB42F210716846FEF770F906466EB9F0
:105A80009DF80000844208D108480068401C07497E
:105A900008602846FEF7F4FA04E00226781CC7B234
:105AA000032FE3DB00BF3046F8BD0000A803002051
:105AB00002E008C8121F08C1002AFAD170477047D7
:105AC000002001E001C1121F002AFBD170472DE91F
:105AD000F04705464FF00008002600272846FAF751
