:020000040800F2
:10000000C00C0020A1010008A9010008AB010008F4
:10001000AD010008AF010008B101000800000000B8
:10002000000000000000000000000000B301000814
:10003000B501000800000000B7010008B901000880
:10004000BB010008BB010008BB010008BB010008A0
:10005000BB010008BB010008BB010008BB01000890
:10006000BB010008BB0100085D200008BB010008BF
:10007000BB010008BB010008BB010008BB01000870
:10008000BB010008BB010008BB010008BB01000860
:10009000BB010008BB010008BB010008BB01000850
:1000A000793D0008993D0008BB010008BB0100082C
:1000B000C53D0008BB010008BB010008BB010008EA
:1000C000BB010008BB010008BB010008BB01000820
:1000D000BB0100080D49000869490008BB01000880
:1000E000BB010008BB010008BB010008BB01000800
:1000F000BB010008BB010008BB010008BB010008F0
:10010000BB010008BB010008BB010008BB010008DF
:10011000FD480008BB010008E53D0008113E00084D
:10012000BB010008BB010008BB010008BB010008BF
:10013000BB010008BB010008BB010008BB010008AF
:10014000BB010008BB010008BB010008BB0100089F
:10015000BB010008BB010008BB010008BB0100088F
:10016000BB010008BB010008BB010008BB0100087F
:10017000BB010008BB010008BB010008BB0100086F
:10018000BB010008BB010008DFF810D000F0F8FA4E
:10019000004800479D550008AFF30080C00C0020C8
:1001A0000648804706480047FEE7FEE7FEE7FEE711
:1001B000FEE7FEE7FEE7FEE7FEE7FEE7113D00088B
:1001C0008901000840EA01039B0703D009E008C940
:1001D000121F08C0042AFAD203E011F8013B00F80C
:1001E000013B521EF9D27047D2B201E000F8012B58
:1001F000491EFBD270470022F6E710B513460A46A7
:1002000004461946FFF7F0FF204610BD2DE9FE4FCA
:10021000804681EA0300C00F0C46009021F00041A7
:1002200023F00045B8EB0200A94105D24046214623
:1002300090461C460B46024623F00040104347D030
:10024000270DC7F30A00C3F30A510290401A019028
:1002500040286BDAC3F3130040F4801B00989246E9
:1002600020B10023D2EB030A63EB0B0B0198594634
:10027000C0F14002504600F0BEF906460D46504619
:100280005946019A00F0D6F910EB080061410024AC
:1002900087EA115284EAE7731A4340D0009A62B3A6
:1002A000019A012A4FEA075215DC001B61EB02019B
:1002B0004FF0004202EA0752CDE90042001C41F52E
:1002C000801132462B4600F00DFA03B0BDE8F08FE6
:1002D00040462146F9E7001B61EB0201001C41F595
:1002E000801300185B412018A2F5001747EB0301AB
:1002F00040EAD570B6196D4111E06D084FEA360637
:1003000045EAC0754FEA0752001B61EB0201001C71
:1003100041F5801149084FEA300000195141324639
:100320002B4603B0BDE8F04F00F0CDB90098012294
:1003300040000023D0EB020263EBE07300982146FB
:100340004FEAE074B8EB000061EB0401E9E783F0E9
:1003500000435BE781F0004158E72DE9FE4F81EA59
:10036000030404F0004421F0004100944FF0000B1E
:1003700023F0004350EA01045ED052EA03045BD04C
:10038000C3F30A54C1F30A552C44A4F2F334019484
:10039000A0FB0254C1F3130141F48011C3F3130312
:1003A00043F4801301FB024400FB034E840A970AC6
:1003B00044EA815447EA8357A4FB076802958D0AF3
:1003C00005FB07854FEA932C04FB0C542705029D7F
:1003D0004FEA065847EA1637B5EB08056EEB070CEF
:1003E000870E920E47EA811742EA8312A7FB0201A9
:1003F000B6EB0B0164EB00042B0D43EA0C335E18E3
:1004000044EB1C50DA465146E7FB0201C5F31304E6
:100410004FEA0B3343EA14534FEA0432019C43EA98
:100420000603A4F10C040294009CCDE900B400F092
:1004300059F903B0BDE8F08F00200146F9E72DE936
:10044000F04D81EA030404F0004B21F0004514460E
:100450004FF0000A23F0004150EA050220D054EA90
:1004600001021DD0C5F30A570246C5F31303C1F3B9
:100470001300C1F30A5640F4801543F48013A7EB30
:100480000608101BD64608F2FD3873EB050002D3B0
:1004900008F1010801E092185B41B8F1000F03DA9E
:1004A00000200146BDE8F08D00204FF48011064683
:1004B00084460EE0171B73EB050705D3121B63EB95
:1004C000050306434CEA010C49084FEA3000921834
:1004D0005B4150EA0107EDD152EA030012D082EAF3
:1004E000040083EA0501084305D0101BAB4106D286
:1004F0000122002306E000224FF0004302E06FF0EB
:10050000010253101AEB06004CEB085110EB0A00E5
:1005100041EB0B01BDE8F04D00F0D5B80EB540F24F
:10052000334102910021CDE900110A460B4600F04B
:10053000D9F803B000BD00F0004230F000400AD00E
:10054000C10D01F56071C0F3160042EA0151C20805
:1005500040071143704700200146704701F00043F7
:1005600030B421F0004150EA010206D00A0DA2F594
:100570006072C1F31301002A02DC30BC0020704716
:10058000440F44EAC104C100E01830BC00EBC25083
:1005900000F062B82DE9F05F0546002092469B46C8
:1005A00088460646814640241BE028464146474689
:1005B000224600F02FF853465A46C01A914110D3F4
:1005C00011461846224600F016F82D1A67EB01086E
:1005D0004F4622460120002100F00DF817EB0009DC
:1005E0004E41201EA4F10104DFDC484631462A4674
:1005F0004346BDE8F09F202A04DB203A00FA02F1CE
:10060000002070479140C2F1200320FA03F3194300
:1006100090407047202A04DB203A21FA02F00021A2
:10062000704721FA02F3D040C2F120029140084302
:1006300019467047202A06DBCB17203A41FA02F010
:1006400043EAE07306E041FA02F3D040C2F120022F
:1006500091400843194670470029A8BF7047401CC5
:10066000490008BF20F00100704710B4B0FA80FCC8
:1006700000FA0CF050EA010404BF10BC704749B105
:10068000CCF1200421FA04F411FA0CF118BF012175
:1006900021430843A3EB0C01CB1D4FEA00614FEA55
:1006A000102042BF002010BC704700EBC350104424
:1006B0000029A4BF10BC7047401C490008BF20F0AF
:1006C000010010BC704710B5141E73F1000408DA65
:1006D000401C41F1000192185B411A4301D120F006
:1006E000010010BD2DE9F04D92469B4611B1B1FAC3
:1006F00081F202E0B0FA80F220329046FFF77BFFF1
:1007000004460F4640EA0A0041EA0B0153465A46A6
:10071000084313D0114653EA010019D0C8F1400232
:100720005046FFF777FF05460E465046594642466B
:10073000FFF761FF084305D0012004E02046394659
:10074000BDE8F08D0020054346EAE0762C433743B0
:100750000A986305E40AA0EB08000022FD0A44EAB7
:1007600047540A3002D500200146E9E70105101977
:100770006941DDE9084500196941BDE8F04DA2E78E
:10078000064C074D06E0E06840F0010394E80700DE
:1007900098471034AC42F6D3FFF7FAFCCC5C000863
:1007A000EC5C000870B58D1810F8014B14F00302D2
:1007B00001D110F8012B231106D110F8013B03E001
:1007C00010F8016B01F8016B521EF9D1ABB110F8B2
:1007D000012B04F00C048A1A0C2C03D0A2EB841217
:1007E0009B1C08E010F8014BA2EB0422F8E712F87A
:1007F000014B01F8014B5B1EF9D5A942D4D300206F
:1008000070BD10B5044634B1012C07D0102C08D0AF
:10081000112C0CD108E004F0EDFD08E004F096FF87
:1008200005E004F089FF02E004F07CFF00BF00BF98
:1008300010BDCA430260704721B1826842F00102D4
:10084000826003E0826822F001028260704700004B
:100850000021084A1168084A1140D0E900231A43D0
:1008600083681A43C3681A431143044AC2F8041345
:100870007047000004230140E030FCFF00200140ED
:1008800000B58DB00121084602F0D4FD0121080217
:1008900002F000FE4020019003208DF808000020A7
:1008A0008DF80B0001A9174801F084FE0020039089
:1008B00004900690059003A8FFF7CAFF01210802E3
:1008C00002F0F8FD00214FF4807002F0F3FD0020EB
:1008D0008DF8200007908DF8210009900B900120E1
:1008E0008DF8300007A9084800F01EF80623012201
:1008F0001946054800F042F801210348FFF79CFF24
:100900000DB000BD00000240002001400146C86C4F
:1009100080B270470246002013680B400BB10120E3
:1009200000E000207047000030B5024600200023A0
:100930005068104C20400D790C6844EA052420438F
:10094000506090680C4C2040D1E903542C438D68D2
:100950002C434D7944EA450420439060D06A20F44A
:1009600070000C7D641EE4B2234340EA0350D06261
:1009700030BD0000FFFEFFFCFDF7FFC0F0B50446F0
:100980000D4600200021092D11DDE068A5F10A06C1
:1009900006EB4607072606FA07F18843A5F10A0683
:1009A00006EB460603FA06F10843E0600CE0206916
:1009B00005EB4507072606FA07F1884305EB4506D0
:1009C00003FA06F108432061072A0FDA606B561E0E
:1009D00006EB86071F2606FA07F18843561E06EB2C
:1009E000860605FA06F10843606322E00D2A0FDA55
:1009F000206BD61F06EB86071F2606FA07F18843F1
:100A0000D61F06EB860605FA06F10843206310E0C0
:100A1000E06AA2F10D0606EB86071F2606FA07F12B
:100A20008843A2F10D0606EB860605FA06F1084397
:100A3000E062F0BD816841F080418160704710B58F
:100A400000231A4619461C2002F0D4FF10BD10B531
:100A500000231A4619463C2002F0CCFF10BD10B509
:100A600000231A4619461A2002F0C4FF10BD0000E8
:100A700010B51248007801281ED100200F490870D7
:100A80000F488078A12802D0A22814D10CE0FFF7EB
:100A9000D6FF4FF4FA7004F0D5FCFFF7E0FF4FF4F7
:100AA000FA7004F0CFFC06E001200649087006A0A9
:100AB00004F020FB00BF00BF10BD000014030020A5
:100AC0000A0500202A010020546573740A00000002
:100AD00070B50023224A1278082A03DA0022214C3A
:100AE00022703BE0002034E01F4A125C552A2ED1D0
:100AF0001D4CC21DA25CBB2A29D12546841C2D5D3C
:100B0000194EC41C345D2544041D345D2544441D28
:100B1000345D2A19D41702EB14642412A2EB0424C6
:100B2000E3B23446821DA25C9A420DD1002105E059
:100B30000A180D4CA25C62544A1CD1B20829F7DB9A
:100B40000122084C227002E00022064C2270421C56
:100B5000D0B2034A1278D21F8242C5DA70BD0000BB
:100B60003F010020380100202403002010B500F0D0
:100B700009F8012003F078F800200149086010BD51
:100B8000BC0243421CB50121422002F053FC40202C
:100B9000009001208DF8040000208DF8060003204D
:100BA0008DF8050069460A4801F004FD4FF4004045
:100BB000009001208DF8040000208DF8060003202D
:100BC0008DF805006946034801F0F4FC1CBD0000E7
:100BD000000402400018024010B502F081FE01201E
:100BE00008490860022004F067FC0748D0F81C029E
:100BF000C4B2002003490860022004F05DFC2046D6
:100C000010BD0000988240420080404270B504460A
:100C100002F076FE00251BE004F080061EB10120E4
:100C20000E49086002E000200C4908606006040ECE
:100C300001200A49091F0860022004F03DFC002041
:100C40000749C1F89802022004F036FC681CC5B2BE
:100C5000082DE1DBFFF7C0FF70BD00009C82404221
:100C60000080404210B502F04BFE012009490860A7
:100C70000949C1F89802042004F01EFC002005492F
:100C80000860042004F018FC00200349C1F8980211
:100C900010BD00009C8240420080404210B502F02E
:100CA0002FFE00200749086001200749C1F898027B
:100CB000042004F001FC012002490860042004F033
:100CC000FBFB10BD9C824042008040420146002256
:100CD00004E001F0010000B1521C49080029F8D1DC
:100CE000C2F110007047000010B504460B48844262
:100CF00009D10121480602F0BDFB00214FF0007030
:100D000002F0B8FB08E00121880602F0B3FB0021E5
:100D10004FF0806002F0AEFB10BD000000640040A8
:100D200010B50021837A012202FA03F13D4A1268CC
:100D300042F001023B4B1A603A4A1C3212688A4365
:100D4000384B1C331A60027BCAB9364A0C3212681F
:100D50008A43344B0C331A604288C38842EA034307
:100D6000304A4032847A42F834300288838842EA3A
:100D700003432C4A4032847A02EBC4025360027B64
:100D8000012A19D1274A0C3212680A43254B0C3329
:100D90001A604288038842EA0343224A4032847A36
:100DA00042F83430C288838842EA03431D4A403205
:100DB000847A02EBC4025360C27A3AB9194A121D0E
:100DC00012688A43174B1B1D1A6006E0154A121D54
:100DD00012680A43134B1B1D1A60028932B9114A6B
:100DE000143212688A430F4B14331A600289012AA5
:100DF00006D10C4A143212680A430A4B14331A60A3
:100E0000427B012A06D1074A1C3212680A43054B6D
:100E10001C331A60034A126822F00102014B1A6067
:100E200010BD0000006600401AB143690B434361E6
:100E300002E043698B434361704730B502460020AE
:100E40000023146824F002041460146844F00104C0
:100E5000146000E05B1C546804F001041CB94FF6F8
:100E6000FF74A342F6D1546804F001040CB90020C9
:100E70006CE08C79012C04D1146844F08004146077
:100E800003E0146824F080041460CC79012C04D1B0
:100E9000146844F04004146003E0146824F0400433
:100EA00014600C7A012C04D1146844F020041460FE
:100EB00003E0146824F0200414604C7A012C04D15F
:100EC000146844F01004146003E0146824F0100463
:100ED00014608C7A012C04D1146844F00804146066
:100EE00003E0146824F008041460CC7A012C04D1C7
:100EF000146844F00404146003E0146824F004044B
:100F000014608C78A407CD7844EA05640D7944EA2E
:100F100005444D7944EA05540D886D1E2C43D46177
:100F2000146824F001041460002300E05B1C546882
:100F300004F001041CB14FF6FF74A342F6D15468CB
:100F400004F001040CB1002000E0012030BD024695
:100F5000002019B9D36803F0030006E0012903D18A
:100F6000136903F0030000E00020704710B500F59E
:100F7000D87303EB01131B6803F004031372137A95
:100F800053B900F5D87303EB01131B6840F2FF74EB
:100F900004EA5353136009E000F5D87303EB01131F
:100FA0001B686FF0604404EAD303536000F5D87304
:100FB00003EB01131B6803F00203537200F5D873AF
:100FC00003EB01135B6803F00F03937200F5D87312
:100FD00003EB01135B681B0AD37400F5D87303EBB2
:100FE00001139B68D37200F5D87303EB01139B6860
:100FF0001C0A147300F5D87303EB01139B681C0CD7
:10100000547300F5D87303EB01139B681B0E9373A5
:1010100000F5D87303EB0113DB68D37300F5D873C5
:1010200003EB0113DB681C0A147400F5D87303EB9F
:101030000113DB681C0C547400F5D87303EB011327
:10104000DB681B0E937421B9C36843F02003C360AF
:1010500003E0036943F02003036110BD10B50246AD
:101060000020936803F08063B3F1806F00D110E03B
:10107000936803F00063B3F1006F01D1012008E031
:10108000936803F08053B3F1805F01D1022000E048
:101090000420042874D002F5C07303EB00131B680E
:1010A00003F0010402F5C07303EB00131C600B7A1C
:1010B0007BB94B7A0C8843EA445302F5C07404EBC5
:1010C00000142468234302F5C07404EB0014236069
:1010D00010E00B7A4C6843EAC4034C7A234302F5D0
:1010E000C07404EB00142468234302F5C07404EBBD
:1010F000001423608B7A03F00F038B7202F5C07328
:1011000003EB00135B6823F00F0402F5C07303EBDD
:1011100000135C6002F5C07303EB00135B688C7A0C
:10112000234302F5C07404EB001463608B7B1C0640
:101130004B7B44EA03440B7B44EA0323CC7A2343EE
:1011400002F5C07404EB0014A3608B7C1C064B7C7E
:1011500044EA03440B7C44EA0323CC7B234302F59B
:10116000C07404EB0014E36002F5C07303EB0013DA
:101170001B6843F0010402F5C07303EB00131C600D
:1011800010BD000010B50246002321B1012907D08F
:1011900002290FD109E090681D4C00EA04030BE01E
:1011A00090681C4C00EA040306E090681A4C00EAC0
:1011B000040301E0002300BF00BF184C181BA3422A
:1011C00016D007DC83B16FF08060184470B102283C
:1011D00018D111E0B0F5007F10D0114C204448B177
:1011E000B0F5003F0ED10BE002230DE000230BE031
:1011F000002309E0002307E0012305E0012303E0C9
:10120000012301E0002300BF00BFD8B210BD0000E1
:1012100003000004000300080000031000010008A0
:101220000001FFF72DE9F0410746884615460421E5
:10123000052000F051FE0021012003F031FF18B11C
:101240006FF00100BDE8F08180210A2002F04AFC25
:10125000002409E0395D092003F022FF10B16FF08E
:101260000100EFE7601CC4B24445F3DB0321012019
:1012700003F016FF10B16FF00100E3E7FF2400BF99
:10128000052002F0EDF90646601EC4B21CB106F05E
:1012900004000028F4D0222002F0E2F92870212076
:1012A00002F0DEF968700020CCE700002DE9FF476E
:1012B00005460E464FF0000A06B10DB94FF0010A7F
:1012C0009448007800F00F00032801DD4FF0010A78
:1012D00090480078C0F30019BAF1000F19D000202F
:1012E0008DF80A008DF80B0001208DF80C0000200D
:1012F000ADF80000ADF80200ADF80400ADF806004E
:10130000ADF8080001208DF80D006846FFF708FDD4
:10131000FEE00020ADF8080001208DF80D004FF030
:1013200000080024F2E07B48007800F00F0030B1A4
:1013300001283BD002287BD0032874D19CE00020F8
:101340008DF80B008DF80C0035F824004B46002278
:10135000114600F0E1F8ADF8020005EB8401488881
:101360004B460022114600F0D7F8ADF80600601C8D
:10137000C0B20446B04213DA35F824004B460022CE
:10138000114600F0C9F8ADF8000005EB840148886B
:101390004B460022114600F0BFF8ADF8040004E00F
:1013A0000020ADF80600ADF804009CE001208DF8A7
:1013B0000B0000208DF80C0035F824004B4600226D
:1013C000114600F0A9F8ADF80200601CC0B2044656
:1013D000B04207DA35F824004B460022114600F0EF
:1013E0009BF800E00020ADF80600601CC0B2044687
:1013F000B04207DA35F824004B460022114600F0CF
:101400008BF800E00020ADF80000601CC0B204467C
:10141000B04209DA35F824004B460022114600F0AC
:101420007BF802E004E051E00020ADF804005AE04F
:1014300000208DF80B0001208DF80C0035F82400F9
:101440004B460022114600F081F80746B8B2ADF8CD
:101450000200380CADF8000005EB840148884B46CB
:101460000022114600F072F80746B8B2ADF8060047
:10147000380CADF8040036E001208DF80B008DF833
:101480000C0035F824004B460022114600F05EF8AF
:101490000746B8B2ADF80200380CADF80000601C89
:1014A000C0B20446B04208DA05EB840148884B46D6
:1014B0000022114600F04AF800E000200746B8B2CA
:1014C000ADF80600380CADF804000CE00020ADF8D3
:1014D0000200ADF80000ADF80600ADF80400344697
:1014E0004FF0010A00BF00BF8DF80A806846FFF781
:1014F00017FCB44202DA601CC4B200E007E008F155
:101500000100C0B280460D2800DB00E00BE700BF01
:10151000BDE8FF876402002010B50446C4F3090447
:101520000AB1102000E0002002460BB1082000E0C4
:101530000020034613B1C1F3C13000E00020014692
:1015400042EA44101843084380B210BD10B5044667
:10155000C4F309040AB1022000E0002002460BB1E6
:10156000042000E00020034613B18803C00A00E015
:101570000020014642EA44301843084310BD0000F1
:1015800010B500210148FFF7E2FC10BD00640040E7
:1015900070B50446002554B100210648FFF7D7FC7A
:1015A000054625B1224600210248FFF7DFFC284608
:1015B00070BD0000006400402DE9F04706460C466F
:1015C00017469846DDF820904FF0000A154807604E
:1015D000C0F80480002013490872487208468472DB
:1015E000224631460B30FEF7EDFD0E490E48FFF75F
:1015F00035FD0546042D09D04FF0010A29460A4859
:10160000FFF7C0FD012801D14FF0020ABAF1010F26
:1016100004DBB9F1000F01D089F800505046BDE855
:10162000F08700008C05002000640040044800683A
:1016300000F0E05008B1012070470020FCE70000F6
:101640000864004010B501E000F006F8FFF798FFCD
:101650000028F9D110BD000010B52448FFF798FF0D
:101660002248C07C20B101280AD0022818D10FE0FE
:101670001E48827A00F10B011D4800F0C1FD24E0F4
:101680001A48827A00F10B011A4800F0B9FD1CE0FB
:101690001648827A00F10B01174800F0B1FD14E002
:1016A0001248C07C03280FDB1048C07C06280BDCE6
:1016B0000E48C07CC01E114901EBC0000B490B3124
:1016C0000A6802604968416000BF00BF0748C07CEB
:1016D000062809DC0548C07C094951F82000094961
:1016E000096808430749086010BD00000007002092
:1016F000B4050020C4050020E405002014070020E4
:10170000BC5B00086802002000B5034A51781078DD
:1017100001F03AF900BD000014070020F8B5FFF70A
:1017200085FF00285FD00026002559E02E4890F95B
:10173000000030B101280ED002281ED0032840D16D
:101740002DE000F05DF80746002F03DB0126F8B21C
:1017500000F07AF839E008222449254800F03BFDE2
:10176000C4B24CB10126234800234FF42072214615
:1017700000901E48FFF720FF27E008221B491E4863
:1017800000F029FDC4B24CB101261A4800234FF4E1
:101790002872214600901548FFF70EFF15E0082239
:1017A0001249164800F017FDC4B24CB10126114889
:1017B00000234FF47072214600900C48FFF7FCFEA6
:1017C00003E0FF200849087000BF00BF064800780A
:1017D000401C40B20449087006B103E0681CC5B261
:1017E000042DA3DD00BFF8BD9C0200206C02002088
:1017F000D40500209D020020F4050020B40500203F
:101800004FF0FF30002109E001EB8102054B13F896
:1018100022200AB148B203E04A1CD1B20729F3DB07
:1018200000BF704734070020002007E0002100EBD4
:101830008002044B03F82210411CC8B20728F5DBD4
:101840007047000034070020F8B50446002004EB80
:1018500084050E4E06EB850500902B6904EB84058C
:1018600006EB8505EA6804EB840516F8251004EB01
:10187000840506EB8505681CFFF79EFE002004EB3F
:101880008401324602F82100F8BD00003407002030
:101890002DE9F04104460F4615461E46DDF8188036
:1018A000072C1ADA04EB84000D4901F8205004EBF0
:1018B00084010B4A02EB8101481C2A463946FEF797
:1018C00081FC04EB8400064901EB8000C66004EB58
:1018D000840001EB8000C0F81080BDE8F0810000BA
:1018E0003407002010B50D4A32210D4800F02AF8C7
:1018F0000C4A32210C4800F025F80C4A32210C48E1
:1019000000F020F80B4A32210B4800F01BF80B4A7C
:1019100032210B4800F016F810BD0000040600202C
:10192000B405002036060020C4050020680600200B
:10193000D40500209A060020E4050020CC060020F3
:10194000F405002070B504460E4615462660E56095
:101950000021204600F08EFC70BD000038B5FFF776
:1019600071FE68E0FFF76EFE002462E0344850F834
:101970002400344909680840002858D0072C4DD26B
:10198000DFE804F0040C18242739460000BF69463C
:101990002D4800F081FC0028F9D13FE003E09DF8DC
:1019A000000003F053FB6946284800F075FC00284E
:1019B000F5D133E003E09DF8000000F0DFF8694660
:1019C000234800F069FC0028F5D127E0FFF79CFED2
:1019D00024E0204802F08AFF1F49088005E01E48E5
:1019E0000088A0F561601C4908801B480088B0F59C
:1019F000616FF4DA12E017480838007C022806D13B
:101A00001448093002F06AFF00B21449088005E06A
:101A100010480838007E012800D100BF00BF1048E0
:101A200050F8240007490968084006490860601C0E
:101A3000C4B2062C9ADD03480068002892D138BD54
:101A4000BC5B000868020020B4050020C40500202B
:101A5000E40500201C070020780200207602002008
:101A60003C5C000810B50020064908600649087073
:101A700007210648FFF71AFCFFF734FFFFF7D4FEF3
:101A800010BD000068020020640200207A020020DD
:101A900010B534480078002862D03348006803F05D
:101AA0003FFD00285CD131484078032803D12F48FE
:101AB00000F0CAFA51E02D4840780C2807D12B4895
:101AC0000079062849D101202949087045E02748B6
:101AD00040780E2803D025488078012803D1234878
:101AE00000F0F0FF39E0214840780F2803D01F486C
:101AF0008078012803D11D4800F0E4FF2DE01B4849
:101B00004078052803D019484078032803D11748A6
:101B100000F0B2F921E0154840780D2803D01348B1
:101B20004078032803D1114800F0A6F915E00F48CA
:101B3000007855280CD10D484078022808D132226F
:101B40000A490C48FEF73EFB01200B49087004E0EF
:101B500006484078062800D100BF002001490870DF
:101B600010BD00001103002018030020F80700201A
:101B7000120300200A0500201403002010B50446BB
:101B80000F48007870B903F0C5FC401D0D4908608E
:101B900000200D4908700D48097844540120084977
:101BA00008700BE008480078C82807DA0648007873
:101BB000401CC0B20449087004490C5410BD000018
:101BC000110300201803002010030020F807002054
:101BD0007FB505460C460121202001F03BFC029513
:101BE000ADF804400020ADF80600ADF80C008DF80B
:101BF0000E0001A90D4802F045F937208DF80000CC
:101C000000208DF8010004208DF8020001208DF8DD
:101C10000300684601F052F801221146034802F021
:101C200027F90121014802F006F97FBD00140040A8
:101C300010B5FFF793FEFFF771FD10BD10B5044618
:101C4000E72C08D157480068574908605548006894
:101C50005649086088E0F72C0AD1524800681E30C7
:101C6000514908604F4800682838504908607BE0B7
:101C7000EF2C0AD14B48006828384B490860494886
:101C800000681E30494908606EE0F32C01D0FB2C3F
:101C90000AD1444800681E30434908604148006842
:101CA0002838424908605FE0F92C01D0FD2C0AD1A8
:101CB0003C4800683C303C4908603A480068463877
:101CC0003A49086050E0FC2C0AD1364800683C30A4
:101CD00035490860334800685A383449086043E0A1
:101CE000FE2C0AD12F48006850302F4908602D483B
:101CF000006878382D49086036E0CF2C0AD1294891
:101D000000681E302949086026480068283826499E
:101D1000086029E09F2C01D0DF2C0AD121480068FF
:101D20003C30224908601F48006846381E49086058
:101D30001AE03F2C01D0BF2C0AD11A480068463067
:101D40001A490860174800685A38174908600BE0BC
:101D50007F2C09D11348006850301449086011489D
:101D6000006878381049086001F08CFD1049098836
:101D700088420CDB03200F49087000200E490870D0
:101D80000E4908700021084601F064FE10BD0B48A2
:101D9000007828B1054801680348006800F0B0F8F1
:101DA00000BFF3E748020020400200204402002068
:101DB0004C0200203D020020340200203C020020A2
:101DC0002DE9F04107460C461546002600BF0EE0FF
:101DD000012009490860384603F034FB0020074918
:101DE000C1F89402204603F02DFB701C86B2AE426F
:101DF000EEDBBDE8F0810000948243420080434264
:101E00001CB501214FF4C07001F014FBF0200090CC
:101E100000208DF8040001208DF807006946144861
:101E200000F0C8FB4FF47040009001208DF80400D2
:101E300000208DF8060001208DF8070003208DF8A2
:101E4000050069460B4800F0B5FB202000900120FA
:101E50008DF8040000208DF8060001208DF80700A1
:101E600003208DF805006946024800F0A3FB1CBD65
:101E700000200240001C0240C17801291AD10179DA
:101E8000012906D0022908D003290AD0042910D13B
:101E90000BE001210E4A11700BE002210C4A117077
:101EA00007E003210A4A117003E00421084A117077
:101EB00000BF0BE0C178022908D14179012905D181
:101EC00003490978012901D1024A117070470000C5
:101ED000490100204A01002070B505460C46002645
:101EE000284601F0BDFB46B226EA0400C1B22846EE
:101EF00003F0D6F810B16FF0010070BD0020FCE7D0
:101F000070B505460C46002D06DB642D00DD64250A
:101F1000052D0BDA052509E015F1640F01DA6FF0E4
:101F2000630515F1050F01DD6FF00405002C06DBDC
:101F3000642C00DD6424052C0BDA052409E014F17F
:101F4000640F01DA6FF0630414F1050F01DD6FF027
:101F500004042146284601F07DFD70BD0FB430B564
:101F600085B009A8009062E0089800785C281DD12F
:101F70000898401C089090F900006E2809D072283B
:101F80000FD101212EA001F029FD0898401C0890D6
:101F90000BE001212BA001F021FD0898401C0890C6
:101FA00003E00898401C089000BF40E008980078C3
:101FB000252835D10898401C089090F90000642825
:101FC00012D0732827D1009810C8009005E0204651
:101FD000641C012101F002FD641C20780028F6D168
:101FE0000898401C08901AE0009820C800900A2227
:101FF00001A9284603F0A0FA01AC05E02046641CC4
:10200000012101F0EBFC641C20780028F6D108982F
:10201000401C089003E00898401C089000BF06E0B0
:10202000089A511C10460891012101F0D7FC08982C
:102030000078002898D105B030BC5DF814FB000092
:10204000720000006E0000000179052902D1012113
:10205000014A1170704700004801002010B52DEDB5
:10206000068B102000F054F8012836D110211C48AE
:1020700000F00BFB70BB00211A4801F0DCFE1A488F
:1020800090ED000AB8EE400A184880ED000A1648A4
:102090000068FEF743FA41EC1A0B9FED150B53EC69
:1020A000102BFEF75AF941EC190B9FED130B53EC73
:1020B000102BFEF74CF941EC180BFEF74FFA0B49C9
:1020C0000860084690ED000ABCEEC00A10EE100A47
:1020D0000B490880102000F015F8BDEC068B10BDF0
:1020E0000004024000100040500100204C0100207C
:1020F00085EB51B81E85FB3F000000000000344016
:10210000540100200149086070470000143C014060
:1021100001460020034A12680A400AB1012000E08B
:1021200000207047143C0140002123498279002A95
:102130003AD00A46126803689A430B461A600A1D91
:10214000126803689A430B1D1A60027911440A68E9
:1021500003681A430A60184A0832126803689A43EF
:10216000154B08331A601A1D126803689A43124B04
:102170000C331A604279102A0ED11A1F12680368B4
:102180001A430D4B08331A601A1D126803681A436C
:10219000094B0C331A600DE00749427911440A6873
:1021A00003681A430A6005E0027911440A6803686B
:1021B0009A430A6070470000003C014010B500F0EF
:1021C000EBFDFEF75DFB10BD10B504460621204671
:1021D00000F000FC10BDF0B507460C461646002581
:1021E00064B106E06119384600F056F800B904E021
:1021F0006D1C301EA6F10106F4D100BF2846F0BDCB
:10220000F0B507460D461646002406E0295D38461F
:1022100000F06CF800B904E0641C301EA6F1010661
:10222000F4D100BF2046F0BD30B50446002520465D
:1022300000F04AF870B1D4E90001401E814203D198
:10224000A06838B1012505E0D4E90101401C8142B4
:1022500000D00125284630BD30B504460025204673
:1022600000F032F820B1D4E90110884200D00125F5
:10227000284630BD70B504460D4664B1206801287B
:1022800009D90020A0602068401E60602A462168AD
:10229000E068FDF7A9FF70BD70B504460D46002645
:1022A00085B12046FFF7C0FF60B16068401C6060E8
:1022B0002168884201D3002060606168E068405C6A
:1022C00028700126304670BD0146002069B10A68B9
:1022D000012A0AD9CA6842B10B688A689A4204D2B4
:1022E000D1E900329A4200D20120704770B504460D
:1022F0000D4600262046FFF7AFFF58B1A168481CE5
:10230000A060E06845542168A068884201D300209D
:10231000A0600126304670BD10B50446E72C07D1F9
:102320000020294908700021084601F093FB10BDE8
:10233000F72C07D10020244908700021084601F03D
:1023400089FBF4E7EF2C07D100201F49087000211A
:10235000084601F07FFBEAE7F32C01D0FB2C07D104
:102360000020194908700021084601F073FBDEE7E0
:10237000F92C01D0FD2C07D1002013490870002151
:10238000084601F067FBD2E7CF2C07D100200E49A9
:1023900008700021084601F05DFBC8E79F2C01D0C2
:1023A000DF2C07D10020084908700021084601F001
:1023B00051FBBCE70448007820B10448016800687C
:1023C000FFF79EFD00BFB2E7300200204802002068
:1023D00070B504460D4601F071FC01F077FA002C4F
:1023E00003DB01200949087002E001200849087058
:1023F000084805800848046001680068FFF780FD10
:1024000000BF064800780328FBD170BD39020020C8
:102410003A0200204C020020480200203D02002029
:1024200070B504460D4601F049FC01F04FFA012059
:102430000B49087005EB85004FF6FF7101EA40007B
:10244000084908800848046000684142064800685E
:10245000FFF756FD00BF054800780228FBD170BD8C
:10246000380200204E020020480200203D020020D9
:1024700010B5044601F022FC002C03DB01200A49C0
:10248000087002E00120094908700120084908701D
:102490000848046000BF08480078012803D00648B7
:1024A00000780428F7D110BD31020020320200204C
:1024B0003B020020480200203D02002010B53C20D5
:1024C000FFF7D6FF012002F0BDFF05480078012884
:1024D00004D14FF4BE713C20FFF77AFF10BD00001D
:1024E0003D02002070B504460D4601F0E7FB01F007
:1024F000EDF9002C03DB01200D49087002E00120FA
:102500000C49087001200C4908700C4804600C4804
:10251000058000BF0B480078012807D009480078E3
:10252000032803D0074800780428F3D170BD0000C9
:1025300034020020330200203C0200204802002028
:102540004C0200203D02002010B5044601F0B6FB0D
:10255000012007490870074804600168006840428C
:10256000FFF7CEFC00BF044800780228FBD110BD65
:1025700036020020480200203D02002010B504462B
:1025800001F09CFB012008490870084804600068BD
:10259000414206480068FFF7B3FC00BF04480078DA
:1025A0000228FBD110BD00003702002048020020A5
:1025B0003D020020F0B50A4600210023002400BFA0
:1025C0003DE0012505FA01F3156805EA03049C4284
:1025D00034D105684F000326BE40B5430560157928
:1025E0004E00B5400668354305601579012D02D0CF
:1025F0001579022D16D185684F000326BE40B543DC
:10260000856055794E00B5408668354385604568DC
:1026100001268E40B5434560456896798E40B6B236
:1026200035434560C5684F000326BE40B543C560CD
:10263000D5794E00B540C6683543C560491C1029A0
:10264000BFD3F0BDF0B5002300244D07ED0E02FA14
:1026500005F3CE1000F1200555F826504E07F70E71
:102660000F26BE40B543CF1000F1200646F8275094
:10267000CE1000F1200555F8265045EA0304CE108F
:1026800000F1200545F82640F0BD02460020136900
:102690000B400BB1012000E00020704741837047E0
:1026A0000183704710B502210848FEF7C2F80748B9
:1026B000FEF7C0F900BF02210448FEF72BF90028FD
:1026C000F9D00248FEF722F910BD000000200140B9
:1026D00070B504460025002607E0FFF7E3FF054438
:1026E000052002F0AFFE701CC6B2A642F5DBB5FBBA
:1026F000F4F080B270BD00000146002021B107292E
:102700000AD008290ED10AE0074A5278064B1B78F6
:1027100002EB032290B205E0034A507802E0024A3D
:10272000107800BF00BF70477402002070B50446E7
:102730000D4601F0C3FA01F0C9F8002C03DB0120BB
:102740000749087002E00120064908700648058024
:102750000648046001680068FFF7D2FB70BD000006
:10276000390200203A0200204C02002048020020DA
:1027700010B516480078012810D101F083F81449EB
:10278000098888421FDB0020104908700320114986
:1027900008700021084601F05DF910BD0E48007870
:1027A000012810D101F06EF80949098888420ADB36
:1027B00000200949087003200649087000210846D6
:1027C00001F048F9E9E700BFE7E70000390200201F
:1027D0004C0200203D0200203A02002000B589B0E2
:1027E0000121212000F026FE09220B214248FFF79B
:1027F00029FF09220C214048FFF724FF4FF4C05065
:10280000079002208DF820008DF8210000208DF81F
:10281000220001208DF8230007A93748FFF7CAFEE0
:102820004FF48060079001208DF8200002208DF881
:10283000210000208DF8220001208DF8230007A937
:102840002E48FFF7B7FE002000F05EF80121480691
:1028500000F000FE2A48FEF747FA00208DF8160027
:1028600001208DF8170000208DF8180001208DF848
:10287000190000208DF81A0001208DF81B0000209F
:102880008DF812008DF8130001208DF8140002203D
:102890008DF815000720ADF8100004A91848FEF7C0
:1028A000CCFA00208DF80A008DF80B0001208DF87D
:1028B0000C000020ADF80000ADF80200ADF80400F7
:1028C000ADF80600ADF8080001208DF80D0068464F
:1028D000FEF726FA12200B49086048600020487273
:1028E000087201208872002202210548FEF79CFA36
:1028F000FFF7B8F809B000BD000002400014024024
:1029000000640040C007002010B504462CB94FF405
:1029100080610548FFF7C2FE04E04FF48061024881
:10292000FFF7BEFE10BD00000014024010B5FFF717
:102930007FF910BD10B54FF4E06000F0FBF9A8205E
:1029400002F062FD01F0FAFA00F024F8FFF758FAFD
:1029500002F039FAFFF742FFFEF708F900F0E4FF52
:10296000FFF72CFC07215320FFF732F940F2CF711B
:10297000A72003F07FF840F2E731A72001F016FB13
:1029800000F00CFF10BD0000014A1070517070473C
:10299000740200201CB50121202000F04BFD4FF4F3
:1029A0000060009001208DF8040000208DF80600E2
:1029B00001208DF8070003208DF8050069460348C3
:1029C000FFF7F8FD0120024908601CBD0014024019
:1029D000AC8242422DE9F041074688460020284952
:1029E0000860092002F02EFD01202649C1F8AC0242
:1029F000042002F027FD4FF40C7002F05DFD00246E
:102A00002EE0002528E0385D284100F0010676B967
:102A100000201B4908604FF4FA7002F04DFD0120C0
:102A20001849C1F8AC024FF4FA7002F045FD012ECE
:102A300010D10020124908604FF4FA7002F03CFDFA
:102A400001201049C1F8AC0202F0FCFC4FF44870C0
:102A500002F032FD681CC5B2082DD4DB601CC4B284
:102A60004445CEDB0020064908604FF40C7002F0AC
:102A700023FD01200349C1F8AC02BDE8F08100004C
:102A8000AC8242420080424210B500F055FB10B1CA
:102A90006FF0010010BD00F0BDF9022002F0D2FC81
:102AA00000F0BEF9412000F0B7F810B16FF001005E
:102AB000F0E701200249087000F0D0FD0020E9E7AE
:102AC0008C0100200179072900D000BF7047000069
:102AD00010B53948006890B93848006808B9012035
:102AE00000E000203549086000BF33480068002836
:102AF000FBD00120324908700520324908802E4859
:102B0000001D006820BB2D48001D006808B9012089
:102B100000E000202949091D086000BF2648001D6B
:102B200000680028FAD03C20FFF7A2FC0820FFF73D
:102B3000E3FD0446214624A002F0DCFA0A2002F05C
:102B400081FC64212820FFF743FC0A2002F07AFC74
:102B500019480830006888B918480830006808B972
:102B6000012000E0002015490831086000BF12482C
:102B7000083000680028FAD0FFF7A0FC0E480C309F
:102B80000068B8B90D480C30006808B9012000E0B1
:102B900000200A490C31086000BF07480C3000686B
:102BA0000028FAD0FDF753FF4FF4FA7002F04AFC08
:102BB000FDF755FF10BD000010024442B0824342B1
:102BC0002A0100202801002030782578000000002C
:102BD00008B504A00068009004216846FFF7FAFEDB
:102BE00008BD000000FF0CF308B504A000680090C9
:102BF00004216846FFF7EEFE08BD000000FF18E75D
:102C000008B504A00068009004216846FFF7E2FEC2
:102C100008BD000000FF5EA110B50446412C41D163
:102C200008210846FFF758F93D21112002F038FA33
:102C300010B16FF0010010BD8621172002F030FAAC
:102C400010B16FF00100F6E77F21262002F028FA8C
:102C500010B16FF00100EEE71E212D2002F020FAE6
:102C600010B16FF00100E6E700212C2002F018FA05
:102C700010B16FF00100DEE78D212A2002F010FA7A
:102C800010B16FF00100D6E73E212B2002F008FAC8
:102C900010B16FF00100CEE70A2002F0D3FB00F084
:102CA000BFF802E04FF0FF30C5E70020C3E702465F
:102CB0008A4201D9501A7047881AFCE770B5002182
:102CC00000230F22C4781CB3174C246804F4E0647A
:102CD000C4F5E064C4F30721C1F10404E3B20A417E
:102CE00044789C40E1B28478144021430C07210EC3
:102CF0000E4C05786155047804F01F050124AC40A2
:102D000005786D11AD0005F1E025C5F8004109E039
:102D1000047804F01F050124AC40054D06787611B7
:102D200045F8264070BD00000CED00E000E400E036
:102D300080E100E002490143024A1160704700004F
:102D40000000FA050CED00E000211148C079BB2815
:102D50001CD10F4A92780E4BDB781A440C4B1B792E
:102D60001A440B4B5B79D018C21700EB1262121297
:102D7000A0EB0222D1B206488079884203D101201B
:102D8000044A107002E00020024A107070470000F0
:102D9000240300203801002010B52DED048BB0EE87
:102DA000080A164880ED000A90ED000ADFED140ACB
:102DB00020EE200A80ED000A9FED120A124880EDF5
:102DC000000A90ED000ADFED0E0A20EE200A10EE58
:102DD000101A0846FDF7AFFB41EC190B9FED0B0BEA
:102DE00053EC102BFDF72BFB41EC180BFDF7B6FB5A
:102DF00005490860BDEC048B10BD00006401002093
:102E00000000C84200CC0D4160010020000000001D
:102E10000070A74010B503211420FFF75DF810BD26
:102E200010B5142000F01CFC044604F0030018B98F
:102E30000321142000F056FE10BDF0B587B0064601
:102E4000002708210846FFF747F800210D2002F06F
:102E500027F910B1B81E07B0F0BD80210E20FFF792
:102E60003BF893208DF8040020208DF8050006A87B
:102E700001AB022201A900900C2000F052F8054697
:102E80008DB9002407E001A8005D305501A8005D60
:102E90004740601CC4B2042CF5DB01A8005DB842B9
:102EA00001D06FF0010580210E2000F01BFE2846A6
:102EB000D1E72DE9F04387B006460F469046994684
:102EC0008DF804608DF80570002406E018F80410F1
:102ED00001AAA01C1154601CC4B2062CF6DB00240D
:102EE00007E019F8041001AA04F108001154601C4D
:102EF000C4B2062CF5DB06A801AB0C2201A9009098
:102F00000E2000F00EF805462DB9082000F0A8FBB1
:102F100000F0080008B96FF00105284607B0BDE8C9
:102F2000F0832DE9FE4F0646884691469A46DDF825
:102F300030B06FF0010002900020019000900C2E44
:102F400006D00E2E09D1122001901020009005E02D
:102F5000772001903020009000E000BF00BF019872
:102F600040F08001022002F09BF818B16FF00100E0
:102F7000BDE8FE8F80210420FEF7AEFF0021012076
:102F800002F08EF810B16FF00100F1E780210A2005
:102F900000F0A8FD002509E018F80510092002F04E
:102FA0007FF810B16FF00100E2E76D1C4D45F3D3DF
:102FB0003146012002F074F810B16FF00100D7E73C
:102FC0000C2E03D180210D2000F08CFD4FF41675DE
:102FD00000BF042000F044FB04466D1E35B104F030
:102FE000010018B9009820400028F2D080210D205F
:102FF000FEF772FF9DB3062000F032FB00F01B00CD
:1030000070BB002002900198204000F0010010B138
:103010004FF0FF3002900C2E26D10A2000F020FB4A
:1030200004460C2000F01CFB00F007072FB1601EC7
:1030300007EBC000CBF8000002E0E000CBF8000096
:1030400004B90124122C00DD1224002505E009201A
:1030500000F006FB0AF805006D1CA542F7D303E05B
:10306000FFE76FF00100029080210C2000F03AFD94
:103070000021012002F014F810B16FF0010077E791
:10308000029875E7F0B587B005460E4630208DF8FA
:1030900004008DF805500DF10602022101A8FEF78B
:1030A000C1F806A801AB042201A900900C20FFF78B
:1030B00038FF074667B90698902809D1002404E034
:1030C00001A8005D3055601CC4B2102CF8DB01E093
:1030D0006FF00107384607B0F0BD70B588B00646FE
:1030E0000C4608210846FEF7F7FE07210D2001F0E7
:1030F000D7FF18B16FF0010008B070BD0321142094
:1031000000F0F0FC8DF8086007A802AB012202A9CC
:1031100000900C20FFF705FF05464DB907981028D1
:1031200006D19DF8080020709DF80900607001E04C
:103130006FF001052846DFE710B500F072FA10B114
:103140006FF0010010BD0F21012001F0A9FF10B1A7
:103150006FF00100F6E70A2002F09AF93D211120F4
:1031600001F09EFF10B16FF00100EBE71E212D2052
:1031700001F096FF10B16FF00100E3E700212C2071
:1031800001F08EFF10B16FF00100DBE78D212A20E6
:1031900001F086FF10B16FF00100D3E73E212B2034
:1031A00001F07EFF10B16FF00100CBE74021152048
:1031B00001F076FF10B16FF00100C3E70020C1E716
:1031C00070B588B0054693208DF8080070208DF802
:1031D000090000208DF80E0000240BE0295D02AAF2
:1031E000A01C11549DF80E00295D48408DF80E007A
:1031F000601CC4B2042CF1DB0DF10F02072102A800
:10320000FEF710F808210846FEF766FE07A802AB95
:10321000092202A900900C20FFF783FE064626B97A
:103220000798182801D1002601E06FF0010630460A
:1032300008B070BD10B50320FFF74AFA5149088065
:103240000846008800F01EFD4E4908804E4801885F
:103250004C480088FFF72BFD4C4908704A4800880D
:10326000F0BB4B48D0ED000A4648008800EE100A3B
:10327000B8EE400A20EE800ABCEEC00A10EE100A3A
:10328000404908800846008800EE100AB8EE400A5F
:103290004048D0ED000AB4EEE00AF1EE10FA03D295
:1032A00000203D49087016E03648008800EE100AFC
:1032B000B8EE400A3748D0ED000A30EE600ABCEEA6
:1032C000C00A10EE100A34490870084600786428D5
:1032D00001DD64200870304800783049087000E053
:1032E00004E008460178012000F062FB25480088D0
:1032F00025490880254800780A2842DD2448D0ED79
:10330000000A2048008800EE100AB8EE400A20EEBD
:10331000800ABCEEC00A10EE100A1A49088008465E
:10332000008800EE100AB8EE400A1A48D0ED000AF4
:10333000B4EEE00AF1EE10FA03D20020164908704C
:1033400016E01048008800EE100AB8EE400A114856
:10335000D0ED000A30EE600ABCEEC00A10EE100A92
:103360000D49087008460078642801DD6420087063
:10337000094800780949087008460178012000F0E2
:1033800017FB10BD6A0100206C0100206E010020B7
:103390006001002064010020680100205C01002021
:1033A00010B586B004460121084600F043F801211B
:1033B000102000F06FF8072209211B48FFF742F99F
:1033C00007220A211848FFF73DF94FF4C060049026
:1033D00002208DF8140000208DF8160001208DF8D1
:1033E000170003208DF8150004A90F48FFF7E2F835
:1033F00000940020ADF80C000C20ADF80A0000206D
:10340000ADF80800ADF80600ADF8040069460748BD
:1034100001F0BEFB0121054801F052FB00200449E8
:10342000087006B010BD000000000240001001400E
:103430008C01002029B1064A12680243044B1A602D
:1034400004E0034A12688243014B1A60704700008F
:103450003038024029B1064A12680243044B1A6010
:1034600004E0034A12688243014B1A60704700006F
:103470004038024029B1064A12680243044B1A60E0
:1034800004E0034A12688243014B1A60704700004F
:103490002038024029B1064A12680243044B1A60E0
:1034A00004E0034A12688243014B1A60704700002F
:1034B0004438024029B1064A12680243044B1A609C
:1034C00004E0034A12688243014B1A60704700000F
:1034D00024380240F0B500210022002402250026F5
:1034E0000223324F3F6807F00C0121B1042905D0B7
:1034F000082937D105E02E4F076036E02D4F0760D1
:1035000033E02A4F3F1F3F68C7F38056274F3F1FC6
:103510003F6807F03F036EB1264FB7FBF3F7DFF8C4
:103520008CC0ACF1040CDCF800C0CCF3881C07FBA9
:103530000CF40CE01E4FB7FBF3F7DFF870C0ACF1F2
:10354000040CDCF800C0CCF3881C07FB0CF4174F0C
:103550003F1F3F68C7F301477F1C7D00B4FBF5F7B1
:10356000076002E0124F076000BF00BF0F4F3F68C7
:1035700007F0F0010909104F7A5C0768D7404760EF
:103580000A4F3F6807F4E051890A0B4F7A5C47689D
:10359000D7408760054F3F6807F46041490B064FED
:1035A0007A5C4768D740C760F0BD00000838024029
:1035B0000024F40040787D01B401002038B50024D7
:1035C0000020FFF799F8ADF80000BDF80000FDF706
:1035D0007DFB85B2052001F035FF64212820FEF730
:1035E000F7FE0820FFF788F8FF2805D1064942209A
:1035F00000F04CF8044604E04FF4E1613C20FEF793
:10360000E7FEFEF75BFF38BD3C050020014800786F
:10361000704700008C01002010B5142000F020F845
:1036200010BD38B56FF00105002412E0552000F000
:1036300047FA42F21071684600F0BCF838B95520DC
:1036400000F03EFA642001F0FDFE002503E0601C5E
:1036500084B2642CEADB00BF284638BD00207047E6
:1036600038B5044604F03F0040F08004204600F0E6
:1036700027FA42F21071684600F09CF805460DB139
:10368000FF2038BD9DF80000FBE700002DE9FF4159
:1036900005460F466FF0010424A103C9CDE90001DE
:1036A0002E4603A95220FFF718FD0446002C3AD1FC
:1036B000841E20A0FEF752FC02A8FFF7BEFB0446C2
:1036C000002C30D1841E1FA0FEF748FC02A8FFF793
:1036D00077FD0446002C26D11FA0FEF73FFCA41E58
:1036E00002AB6A4631466020FFF7E3FB0446D4B9DB
:1036F0001EA0FEF733FC6FF0010439463046FFF799
:10370000C1FC04467CB96FF001041CA0FEF726FC46
:103710001EA0FEF723FC39461FA001F0EBFC0120A0
:1037200004B0BDE8F0810020FAE70000FFFFFFFFD2
:10373000FFFF000046696E645F43617264204F4B77
:10374000210A0000616E74695F636F6C6C69736954
:103750006F6E204F4B210A0043686F6F73655F43A4
:10376000617264204F4B210A000000007061737386
:10377000776F7264204F4B210A000000526561642C
:103780005F43617264204F4B210A00004361726401
:103790005F446174613A0A0025730A0010B54FF462
:1037A0001650FFF7FDFD4FF4FA7001F04BFEFFF7E6
:1037B0006BF910BD70B504460D4601F0ABFE4FF439
:1037C000FA61B5FBF1F146180AE00A48008800F0FA
:1037D000200028B1074801F045FA2070002070BD94
:1037E000304601F09DFE0028EFD10349087001200A
:1037F000F5E70000001001408C01002010B5FEF735
:10380000B7FF02F087F902F065F900F01BFC10BD6C
:1038100000200E4908700E4908700E4908700E49C4
:1038200008700E4908700E4908700E4908700E495C
:1038300008700E4908700E4908700E4908700E494C
:1038400008700E4908600E49088070473302002056
:10385000340200203C0200203D0200203A020020F9
:1038600039020020360200203702002038020020F2
:103870003B020020320200203102002048020020DA
:103880004C0200200F48B0F900000F4AB2F90020A6
:10389000904207DD0B48B0F900000B4AB2F9002056
:1038A000811A06E00848B0F90000064AB2F9002083
:1038B000811AB1F5004F02D94FF6FF70411A88B254
:1038C0007047000076020020580200200248B0F93C
:1038D000000002490880704776020020580200204C
:1038E0001CB58020009000208DF8040001208DF888
:1038F000070069460148FEF75DFE1CBD000402405A
:103900001CB58020009001208DF8040000208DF867
:10391000060003208DF8050069460248FEF74AFEBE
:103920001CBD0000000402401CB54FF4E13001F062
:1039300063F801210220FFF77DFD4FF40070009035
:1039400001208DF8040000208DF8060001208DF87C
:10395000070003208DF8050069460448FEF72AFE9B
:103960004FF400710148FEF79BFE1CBD00040240AD
:1039700030B500228B071C0F0F2303FA04F20B4B08
:103980008C1053F824309343084C8D1044F82530A4
:1039900023468C1053F824308C07240F00FA04F4CB
:1039A0002343024C8D1044F8253030BD08380140C7
:1039B0007CB505460C4603208DF8040001208DF8E7
:1039C00005008DF8064000204FF4F073032201A992
:1039D00000901046FDF75CFF7CBD000070B504460A
:1039E0000D462A4621460248FEF70AFC70BD00003B
:1039F000B40500202DE9FC4107460C4615461E463D
:103A000012A103C9CDE900018DF802708DF80340C1
:103A10008DF804508DF805600821684600F044F8E0
:103A20004FF4967001F00EFD0821684600F03CF856
:103A30004FF4967001F006FD0821684600F034F856
:103A40004FF4967001F0FEFCBDE8FC8155020000C9
:103A5000000000BB7CB504460D46E0B28DF80400C2
:103A6000E0B28DF80500E8B28DF80600E8B28DF8F6
:103A70000700FDF7DBFD78B100200346202204217A
:103A8000009001A8FDF798FD00202023024601A91F
:103A90000090FDF7FDFE06E000202023042201A98E
:103AA0000090FDF7F5FE7CBD70B504460D462A4634
:103AB00021460248FEF7A4FB70BD0000F40500207B
:103AC00010B504460648008800BF0548008800F08D
:103AD00080000028F9D02146014801F0C8F810BD47
:103AE0000010014070B505460C4600262846FFF739
:103AF000B7FD46B246EA0400C1B2284601F0D0FA4A
:103B000010B16FF0010070BD0020FCE70CB5002083
:103B1000019000903448006840F4803032490860D9
:103B200000BF3148006800F4003000900198401C4C
:103B30000190009818B90198B0F5A04FF1D12A482A
:103B4000006800F4003010B10120009001E0002076
:103B500000900098012846D123484030006840F08A
:103B600080502149403108602048006840F44040BE
:103B70001E4908601C48083000681B49083108606D
:103B80000846006840F4004008600846006840F4B9
:103B9000A05008601648091F0860081F006840F020
:103BA0008070091F086000BF0F48006800F00070B7
:103BB0000028F9D040F205700E4908600A48083024
:103BC000006820F0030008490831086008460068D2
:103BD00040F00200086000BF03480830006800F0B1
:103BE0000C000828F8D10CBD0038024000700040DD
:103BF00019544007003C024010B50446012C04D182
:103C000041030548FEF74AFD05E024B94FF4005191
:103C10000148FEF745FD10BD0008024070B505469D
:103C20000C46012D02D0022D1AD10CE02CB14FF41C
:103C300080610C48FEF732FD04E04FF480610948D2
:103C4000FEF72EFD0CE02CB14FF400610548FEF7A5
:103C500025FD04E04FF400610248FEF721FD00BF9E
:103C600000BF70BD001C024010B50446FCF7FAFF0F
:103C70004620FCF7CBFF2046FCF7C8FFFDF70EF807
:103C800010BD000010B5024600230B4882820021BF
:103C90000BE0094C481C34F8100024F811002046B1
:103CA00030F81100184483B2491C0A29F1DB0A20BC
:103CB00093FBF0F080B210BD4C05002010B5002140
:103CC0000846FFF7C7FEFFF7A3FD10BD10B50120A2
:103CD00001F0B8FB03480078042801D1FFF76EFC1F
:103CE00010BD00003D020020042808D14FF0E02163
:103CF000096941F004014FF0E022116107E04FF043
:103D0000E021096921F004014FF0E02211617047C0
:103D100010B51548006840F4700013490860134856
:103D2000006840F001001149086000200F49083187
:103D300008600E4800680E4908400C4908600D48AC
:103D4000091D0860081F006820F48020091F086012
:103D5000002006490C310860FFF7D8FE4FF00060E4
:103D600001498039086010BD88ED00E0003802404C
:103D7000FFFFF6FE1030002410B50121054800F0C9
:103D800066F8012801D1FFF739FD0121014800F053
:103D90004FF810BD0040014010B50121074800F068
:103DA00056F8012804D106480068401C0449086000
:103DB0000121024800F03CF810BD00000044014021
:103DC000AC01002010B50121880700F040F838B19F
:103DD000FDF75EFEFCF74CFE0121880700F028F895
:103DE00010BD000010B50121074800F030F801288F
:103DF00004D106480068401C0449086001210248BB
:103E000000F016F810BD0000001000405001002026
:103E100010B50121054800F01AF8012805D1FEF778
:103E200085FD0121014800F003F810BD0014004099
:103E3000CA430282704721B1028842F00102028027
:103E400004E002884FF6FE731A400280704730B5D6
:103E50000246002000230024158A05EA0103958903
:103E600005EA010413B10CB1012000E0002030BDCF
:103E70001AB183890B43838102E083898B43838159
:103E80007047000000220288184B98420ED0184B51
:103E900098420BD0B0F1804F08D0164B984205D015
:103EA000154B984202D0154B984204D14FF68F73B0
:103EB0001A404B881A43124B984207D0114B984234
:103EC00004D04FF6FF431A400B891A4302804B6817
:103ED000C3620B880385054B984202D0044B98427D
:103EE00001D18B7A03860123838270470000014051
:103EF000000401400004004000080040000C0040A5
:103F000000100040001400401CB501210420FFF700
:103F100091FA4FF40050009001208DF804008DF8C4
:103F2000070069460448FEF745FB4FF4005102487C
:103F3000FEF7B6FB1CBD00000008024010B500F003
:103F400005F8FFF7E1FF00F017F810BD1CB50121DF
:103F50004020FFF76FFA4FF48070009000208DF83A
:103F6000040001208DF8070069460248FEF722FB95
:103F70001CBD0000001802401CB501218020FFF785
:103F800059FA4FF44060009001208DF804008DF83C
:103F9000070069460448FEF70DFB4FF440610248F4
:103FA000FEF77EFB1CBD0000001C02407FB50546ED
:103FB0000C4601214804FFF76DFA0295ADF8044064
:103FC0000020ADF80600ADF80C008DF80E0001A938
:103FD0000D48FFF757FF19208DF8000000208DF8DD
:103FE000010006208DF8020001208DF803006846CC
:103FF000FEF764FE012211460348FFF739FF012155
:104000000148FFF718FF7FBD0044014010B504468A
:10401000FFF754FE002C03DB01200649087002E084
:104020000120054908700120044908700448046013
:1040300010BD000031020020320200203B020020AF
:104040004802002070B52B48007801281AD12A4870
:104050000078012807D10820FEF74EFBC4B22046A5
:1040600000F036FA45E025480078012841D10820C3
:10407000FEF742FBC5B2284601F0ECFC044600F016
:1040800049F836E01E48007801281AD11D4800780A
:10409000012807D10820FEF72FFBC4B2204600F00C
:1040A000FDFA26E018480078012822D10820FEF702
:1040B00023FBC5B2284601F0CDFC044600F010F900
:1040C00017E012480078012807D10820FEF714FBFA
:1040D000C4B22046FEF720F90BE00D480078012815
:1040E00007D10820FEF708FBC043C4B22046FDF705
:1040F000A5FD70BD3B0200203102002032020020ED
:104100003C02002034020020330200203002002054
:104110003502002070B504460020FEF7EDFA054692
:104120000720FEF7E9FA60B9002066490870664981
:10413000087001206549087000210846FFF78AFCD5
:1041400070BDE72C08D16248006862490860604889
:10415000006861490860AAE0F72C0AD15C48006851
:104160001E305C4908605A48006828385A4908607F
:104170009DE0EF2C0AD15648006828385549086060
:10418000534800681E305449086090E0F32C01D079
:10419000FB2C0AD14E4800681E304E4908604C483E
:1041A000006828384C49086081E0F92C01D0FD2CCA
:1041B0000AD1474800683C304649086044480068D6
:1041C00046384549086072E0FC2C0AD14048006836
:1041D0003C30404908603E4800685A383E49086013
:1041E00065E0FE2C0AD13A48006850303949086031
:1041F0003748006878383849086058E0CF2C0AD131
:10420000334800681E303449086031480068283857
:10421000304908604BE09F2C01D0DF2C0AD12C489C
:1042200000683C302C490860294800684638294914
:1042300008603CE03F2C01D0BF2C0AD12448006824
:10424000463025490860224800685A3821490860EC
:104250002DE07F2C0AD11E48006850301E490860AE
:104260001B48006878381B49086020E04FF67F70D3
:10427000854219D11948008800280FDB0020174912
:1042800008801149087000210846FFF7E3FB002071
:104290000C49087004200D49087051E70F48008848
:1042A000401C0E49088002E000200C4908800548A7
:1042B000007828B10848016806480068FDF720FE2C
:1042C00000BF3DE73B020020320200203D020020FB
:1042D0004802002040020020440200205202002038
:1042E00010B5044664B901206F49087000206F4979
:1042F00008706F49087000210846FFF7ABFB10BD3E
:10430000E72C08D16B4800686B4908606948006871
:104310006A490860A7E0F72C0AD1664800681E3099
:1043200065490860634800682838644908609AE075
:10433000EF2C0AD15F48006828385F4908605D4863
:1043400000681E385D4908608DE0F32C01D0FB2C1D
:104350000AD1584800681E3057490860554800681F
:104360002838564908607EE0F92C01D0FD2C0AD18E
:10437000504800683C30504908604E480068463854
:104380004E4908606FE0FC2C0AD14A4800683C3076
:1043900049490860474800685A384849086062E05F
:1043A000FE2C0AD143480068503043490860414818
:1043B000006878384149086055E0CF2C0AD13D4863
:1043C00000681E303C4908603A48006828383B497C
:1043D000086048E09F2C01D0DF2C0AD135480068E6
:1043E0003C30354908603348006846383349086036
:1043F00039E03F2C01D0BF2C0AD12E48006846304E
:104400002D4908602B4800685A382C4908602AE07A
:104410007F2C0AD12748006850302749086025487A
:1044200000687838254908601DE0FF2C18D1244821
:10443000008800280EDD00202149088021490870ED
:104440001A49087004201849087000210846FFF72F
:1044500001FB54E71A480088401C1949088002E013
:10446000002017490880FFF70DFA1749098888428C
:104470000EDB03200C4908700020144908700B491A
:1044800008700B49087000210846FFF7E3FA36E789
:104490000748007828B10948016807480068FDF717
:1044A0002FFD00BF2BE700003D020020330200205B
:1044B0003C0200204802002040020020440200206C
:1044C000520200203B0200204C0200203402002057
:1044D00070B504460020FEF70FF905460720FEF7E9
:1044E0000BF960B900206649087066490870012020
:1044F0006549087000210846FFF7ACFA70BDE72C4B
:1045000008D16248006862490860604800686149F3
:104510000860AAE0F72C0AD15C4800681E305C49AC
:1045200008605A48006828385A4908609DE0EF2C16
:104530000AD1564800682838554908605348006831
:104540001E305449086090E0F32C01D0FB2C0AD1B6
:104550004E4800681E304E4908604C4800682838B4
:104560004C49086081E0F92C01D0FD2C0AD1474864
:1045700000683C3046490860444800684638454970
:10458000086072E0FC2C0AD1404800683C30404989
:1045900008603E4800685A383E49086065E0FE2CD5
:1045A0000AD13A48006850303949086037480068F5
:1045B00078383849086058E0CF2C0AD13348006871
:1045C0001E30344908603148006828383049086096
:1045D0004BE09F2C01D0DF2C0AD12C4800683C30E6
:1045E0002C490860294800684638294908603CE0A1
:1045F0003F2C01D0BF2C0AD1244800684630254901
:104600000860224800685A38214908602DE07F2C54
:104610000AD11E48006850301E4908601B480068D7
:1046200078381B49086020E04FF67F70854219D129
:104630001948008800280FDB00201749088011491D
:10464000087000210846FFF705FA00200C490870A1
:1046500004200D49087051E70F480088401C0E499E
:10466000088002E000200C4908800548007828B145
:104670000848016806480068FDF742FC00BF3DE7B6
:104680003B020020310200203D02002048020020B1
:1046900040020020440200205202002010B50446CF
:1046A0000720FEF729F868B900207049087001203A
:1046B0006F49087000206F49087000210846FFF715
:1046C000C9F910BDE72C08D16B4800686B49086038
:1046D000694800686A490860A9E0F72C0AD1664871
:1046E00000681E30654908606348006828386449DE
:1046F00008609CE0EF2C0AD15F48006828385F49C9
:1047000008605D4800681E305D4908608FE0F32C4A
:1047100001D0FB2C0AD1584800681E305749086068
:104720005548006828385649086080E0F92C01D0C7
:10473000FD2C0AD1504800683C30504908604E4872
:10474000006846384E49086071E0FC2C0AD14A489E
:1047500000683C3049490860474800685A38484971
:10476000086064E0FE2C0AD1434800685030434999
:1047700008604148006878384149086057E0CF2C0C
:104780000AD13D4800681E303D4908603A4800683B
:1047900028383A4908604AE09F2C01D0DF2C0AD122
:1047A000354800683C303649086033480068463870
:1047B000324908603BE03F2C01D0BF2C0AD12E4883
:1047C000006846302E4908602B4800685A382B494B
:1047D00008602CE07F2C0AD1274800685030284917
:1047E0000860254800687838244908601FE0FF2CDD
:1047F0001AD124480088B0F5FA6F0FDD0020214956
:1048000008801A49087004201949087000201949C5
:10481000087000210846FFF71DF952E71948008883
:10482000401C1849088002E0002016490880FFF764
:1048300029F81549098888420CDB03200C490870C7
:1048400000200C4908700949087000210846FFF74C
:1048500001F936E70548007828B10948016807489A
:104860000068FDF74DFB00BF2BE700003C02002075
:104870003D020020340200204802002040020020B7
:1048800044020020520200204C02002010B50446D1
:10489000FFF714FA01200549087005480460016813
:1048A00000684042FDF72CFB10BD000036020020DE
:1048B0004802002010B50446FFF700FA0120054920
:1048C0000870054804600068414203480068FDF72D
:1048D00017FB10BD370200204802002002460021CD
:1048E0005178107840EA01210846704702460021BD
:1048F0001178507840EA01210846704710B5024807
:1049000000F0BAF910BD00009C04002010B5124858
:10491000007800BB40F22551104800F0EAF8012869
:1049200019D10E4800F09EF90D490E4A12788854AC
:104930000C480078401C0B49087008460078022893
:1049400004DB0020087001200349087040F2255163
:10495000024800F0A6F810BD5601002000100140EA
:10496000580100205701002010B540F225511C4885
:1049700000F0BFF8012831D11A480078C8B900F01A
:10498000C9FD0A3018490860002018490870144809
:1049900000F068F91649154A127888540120114927
:1049A00008701348114A1278815C12A000F0A2FB33
:1049B0000FE00E480078C8280BDA094800F052F9D9
:1049C000C1B20A480078401CC0B2084A1070084AB8
:1049D000115440F22551024800F063F810BD000068
:1049E0000044004040010020440100203F0100201D
:1049F000240300202523780010B586B00446012149
:104A00000420FEF717FD01212020FEF743FD0822B8
:104A100006211D48FDF716FE082207211A48FDF75A
:104A200011FEC020049002208DF8140000208DF8A3
:104A3000160001208DF8170003208DF8150004A939
:104A40001148FDF7B7FD00940020ADF80C000C20D4
:104A5000ADF80A000020ADF80800ADF80600ADF88A
:104A600004006946094800F093F80121074800F066
:104A700027F84021054800F00BF82021034800F0FA
:104A800007F806B010BD0000000802400014014005
:104A900001F40072B2F5007F00D100BFCA4302806A
:104AA000704710B50022002340F66A14A14200D1DD
:104AB00000BF0A1201249440A3B2DC43048010BD5D
:104AC00021B1828942F40052828104E082894DF64C
:104AD000FF731A408281704702460020B1F5007FC3
:104AE00000D100BF13880B400BB1012000E0002073
:104AF000704770B50246002400230025002040F6D0
:104B00006A16B14200D100BFC1F3421501F01F0384
:104B1000012606FA03F3012D02D19689334006E0FF
:104B2000022D02D1168A334001E0968A33400C12DE
:104B3000012606FA04F41688344013B10CB10120A2
:104B400000E0002070BDF0B50346002400260025DB
:104B5000002040F66A17B94200D100BF1846C1F3E1
:104B6000421401F01F06012707FA06F5012C01D1B6
:104B70000C3004E0022C01D1103000E014301AB1E6
:104B800007682F43076002E00768AF430760F0BD86
:104B90002DE9FF4705460E460024A14600BFA0466A
:104BA000B08900B100BF2C8A24F44054F08804433B
:104BB0002C82AC8941F20C608443B088318908436F
:104BC000718908430443AC81AC8A24F44074B089F1
:104BD0000443AC826846FEF77DFC2048854202D043
:104BE0001F48854202D1DDF80C9001E0DDF8089005
:104BF000A88900F4004040B109EBC90000EB09109E
:104C000031684900B0FBF1F707E009EBC90000EBA0
:104C1000091031688900B0FBF1F76420B7FBF0F0B0
:104C200004012009642101FB1078A88900F40040E8
:104C300040B1322000EBC800B0FBF1F000F00700FB
:104C4000044308E0322000EB08106421B0FBF1F0CF
:104C500000F00F0004432C81BDE8FF8700100140E5
:104C60000014014001468888C0F308007047C1F372
:104C7000080282807047000010B5044694F828109E
:104C8000374A52F8210040F22771FFF732FF18B37C
:104C9000E068401CE060D4E90210884209D2E16873
:104CA0002068405C94F828102D4A52F82110888022
:104CB00009E094F828102A4A52F82100002240F214
:104CC0002771FFF740FF94F82810254A52F8210079
:104CD00040F22771FFF7E5FE94F82810204A52F8B9
:104CE000210040F22551FFF704FF30B300F012FC21
:104CF000606294F828001A4951F820008088194908
:104D0000087094F82810164A52F8210040F22551F4
:104D1000FFF7C7FED4E90610884207D21148017890
:104D2000E269501CE0616069815406E00E49206A26
:104D3000884202D2206A401C206294F82810084A57
:104D400052F821000821FFF7C7FE38B194F8280077
:104D5000034951F8200080880449087010BD000004
:104D60007401002070010020F0FFFF7F710100201E
:104D70000EB54FF4C060FDF7DDFF01218803FEF79B
:104D800089FB04210120FEF7F3FD10200190002093
:104D90008DF808000C208DF8090001208DF80A001C
:104DA00001A8FDF7C1F90A208DF8000000208DF858
:104DB000010007208DF8020001208DF803006846ED
:104DC000FDF77CFF0EBD10B500F008F85321092057
:104DD00000F038F8FFF7CCFF10BD00001CB5012132
:104DE0000320FEF727FB00220E211448FDF72AFCC2
:104DF00000220D211148FDF725FC4FF400400090E2
:104E000001208DF8040000208DF8060001208DF8A7
:104E1000070003208DF8050069460848FDF7CAFB26
:104E20001020009000208DF8040001208DF807006C
:104E300069460348FDF7BEFB1CBD000000000240B0
:104E4000000402407FB505460C4601211020FEF704
:104E500001FB0295ADF804400020ADF8060001A961
:104E60000D48FFF70FF836208DF8000000208DF870
:104E7000010008208DF8020001208DF8030068462B
:104E8000FDF71CFF012211460348FEF7F1FF002148
:104E90000148FEF7D0FF7FBD0010004010B562480A
:104EA0000078E0B16148006800F03AFBB8B96048AA
:104EB0000078FD2807D15F480078401CC1B25C48EB
:104EC000FEF7F2FD08E05A480078552802D1FDF7B8
:104ED0003BFF01E0FBF7FCFD0020534908705648FA
:104EE0000078012878D152484078AA2875D15048D6
:104EF0008078202866D00DDC13286FD2DFE800F020
:104F00008A1F222D383C40448A8A8A8A8A8A8A8A61
:104F100048535E0061286AD008DC30285FD0402802
:104F200062D0502861D0512874D15FE0622861D0EE
:104F3000632862D0722863D080286BD165E0FEF7C9
:104F4000BDFE68E03A4A1279394B5B7942EA0321A7
:104F5000374AD078FDF7EAFB5DE0354A1279344BE9
:104F60005B7942EA0321324AD078FDF7DFFB52E059
:104F70006420FFF78BFC4EE06420FFF79BFC4AE0C7
:104F80006420FFF743F846E000202C49088042E007
:104F90002748C0782A490870254800794870244875
:104FA0004079887037E02248C0782549C870204889
:104FB000007908711E48407948712CE02048FDF7BF
:104FC00003F928E01A490979194AD27841EA02110D
:104FD000C8B2FBF716FC1EE025E01DE01AE01449FC
:104FE000C878FEF709FE16E015E014E013E0FDF7BF
:104FF000EFFD10E0FDF7F8FD0DE0FDF701FE0AE022
:105000000B48C0780F49087005E00948C0780E4980
:10501000087000E000BF03E008210548FEF744FDEA
:1050200000200549087010BD400100204401002007
:10503000240300203F0100203801002076020020D8
:10504000390100202A0100201303002010B5044676
:105050000F48007870B900F05DFA0A300D49086019
:1050600000200D4908700D48097844540120084972
:1050700008700BE008480078C82807DA064800786E
:10508000401CC0B20449087004490C5410BD000013
:1050900040010020440100203F01002024030020A3
:1050A000F8B504460D46032704F03F04002719E035
:1050B0002046FEF705FD42F210716846FEF77AFBC6
:1050C00006466EB99DF80000844208D10848006881
:1050D000401C074908602846FEF7F2FC04E002265F
:1050E000781CC7B2032FE3DB00BF3046F8BD0000D9
:1050F000900100200FB4054B10B503A9044A029893
:1051000000F018F810BC5DF814FB0000055500080D
:105110002003002002E008C8121F08C1002AFAD1AB
:1051200070477047002001E001C1121F002AFBD127
:10513000704700002DE9FF4F8DB09B460F46044697
:10514000002606E025280BD05A460F999047641C8C
:10515000761C20780028F5D111B03046BDE8F08FDC
:105160000025A8460122984900E0054314F8013FB4
:10517000203B02FA03F00842F7D120782E2817D1FD
:1051800014F8010F45F004052A280ED06FF02F0205
:105190002078A0F1300109290AD808EB880102EB38
:1051A000410100EB0108641CF2E757F8048B641C12
:1051B00020786C280DD004DC4C2812D06A2811D13C
:1051C00004E074280DD07A280CD10AE045F40015CB
:1051D00007E0617845F48015814202D1641C05F531
:1051E0008015641C2078692844D008DC0028B3D0DE
:1051F000582867D063280FD0642808D13AE0702877
:1052000065D0732812D075285AD078285AD05A46BB
:105210000F999047761CD5E017F8040B8DF8000025
:1052200000208DF80100E946012003E057F8049BB7
:105230004FF0FF3069074FF0000501D40AE06D1C04
:1052400045450DDA8542FADB19F805100029F6D13B
:1052500006E06D1C8542FCDB19F805100029F8D129
:105260002E4404E019F8010B5A460F9990476D1E21
:10527000F8D2A7E00A200021CDE90801C5F30250C9
:1052800002280CD001CFC117021E71F100020CDA06
:105290000023D0EB030063EB01012D2208E0FF1D8A
:1052A00027F00707F7E80201EEE72A0504D52B22CD
:1052B0008DF8282001223CE0EA073AD02022F7E7C7
:1052C0000A2000E010200021CDE9080107E01020AD
:1052D000002145F00405CDE908014FF00808C5F3A9
:1052E0000250022810D001CF00214FF0000A2A07F7
:1052F00020D52278702A0DD0DDE908C38CF0100C7F
:105300005CEA030C0CD015E0FF1D27F00707F7E857
:105310000201EAE740228DF828204FF0010A0CE054
:1053200050EA010306D030238DF828308DF829206B
:10533000022292462278582A04D024A20DF1200994
:105340000B9209E026A2F9E7DDE90823FBF722F931
:105350000B9B9B5C09F8013D50EA0102F4D1ADEBD7
:10536000090020300890680701D44FF0010808991F
:10537000884503DD0898A8EB000000E00020804687
:10538000002506E00AA85A46405D0F9990476D1C1B
:10539000761C5545F6DB04E030205A460F999047BD
:1053A000761CB8F10001A8F10108F5DC05E019F858
:1053B000010B5A460F999047761C0899481E089091
:1053C0000029F4DC641CC4E60928010030313233C2
:1053D0003435363738396162636465660000000031
:1053E000303132333435363738394142434445461B
:1053F0000000000010B500210120FEF70FFC002185
:105400000220FEF70BFC10BD10B504466FF004003F
:10541000FEF76AFCE11704EB5171C1F3C701074ABB
:1054200011701046007800EB4001C1EBC0104FF640
:10543000FF7101EAC0000249088010BDA8010020E8
:10544000AA0100200146114A12884A434FF0E02386
:105450005A6100229A611A46126942F001021A61E9
:1054600000BF4FF0E022106900F001021AB100F411
:105470008032002AF5D04FF0E022126922F00102BA
:105480004FF0E0231A6100229A617047AA010020C0
:105490000021084A116007E000BF00BF00BF0549B6
:1054A0000968491C034A1160024909688142F3D323
:1054B00070470000A40100200146114A12784A43B7
:1054C0004FF0E0235A6100229A611A46126942F0B5
:1054D00001021A6100BF4FF0E022106900F00102E2
:1054E0001AB100F48032002AF5D04FF0E0221269A0
:1054F00022F001024FF0E0231A6100229A61704706
:10550000A801002013B50C4601216846FEF766FA93
:1055100000981CBD0148006870470000AC010020E5
:1055200004490968884203D902490968401A00E021
:1055300000207047AC010020F0B503460D4616462A
:10554000002729460A2E03D0002008702846F0BD07
:1055500033B9302001F8010B002008702846F6E727
:10556000002B03DA2D2001F8010B5B4242F210728E
:105570000EE093FBF2F404B93FB104F1300040B205
:1055800001F8010B04FB123301270A2092FBF0F211
:10559000002AEEDC002008702846D8E700BF00BFD4
:1055A00000BFFDF7C7F9FFF7B5FF00F57A70514965
:1055B0000860FFF7AFFFC8304F490860FFF7AAFF48
:1055C000C8304E490860FFF7A5FFC8304C49086055
:1055D000FFF7A0FF00F57A704A49086055204A4954
:1055E0000870AA2048705520484908700220487069
:1055F00000210846FEF72EFA0A2211463220FCF757
:10560000DFFB76E0FDF764FAFCF742FAFBF730FACD
:10561000FFF744FCFEF75AFB3D480078012805D10E
:1056200000F09EF800203B49086028E038480078E8
:1056300028BB39480088052821DB38480068F0B1CC
:1056400030480068FFF76CFFC8B9FFF763FF00F54B
:105650007A702C4908602F480068401C2D4908606A
:10566000084600680F280AD30A2211463220FCF7A8
:10567000A7FB0120264908700020264908601D4824
:105680000068FFF74DFF68B9FFF744FF00F57A7037
:10569000184908602248006808B9012000E000208D
:1056A0001F49086014480068FFF73AFF30B9FFF758
:1056B00031FFC83010490860FDF7BCFD1048006894
:1056C000FFF72EFFA8B9FFF725FF00F57A700C4908
:1056D0000860FDF79BFF10B9FEF760F809E010487D
:1056E000006808B9012000E000200D490860FDF7BE
:1056F00093FF87E7A00000209C000020A40000206A
:10570000A8000020B0000020D80400200A050020D6
:105710002A010020B400002028010020AC00002055
:10572000BC82434210B501210846FEF777FA0121F9
:105730000220FEF773FA10BD10B501210846FEF7EE
:105740006DFA00210220FEF769FA10BD10B50121A3
:105750000220FEF763FA00210120FEF75FFA10BD78
:1057600010B56420FFF76EFEB8480088401F35284A
:1057700021D2DFE800F01B21282C30373B44484F72
:10578000555C656F73797D81878B92989FA3AAAED4
:10579000B5B9BDC1C7CDD1D5EFF3FAEBEAE9E8E77A
:1057A000E6E5E4E3E2E1E0DFDEDDDC00FCF786FED7
:1057B0000620A649088046E15A20FCF7C5FE0720CE
:1057C000A24908803FE10820A04908803BE1092068
:1057D0009E49088037E13C20FCF74AFE0A209B499D
:1057E000088030E10B20994908802CE14FF4BE710C
:1057F0003C20FCF7EDFD0C209449088023E10D20AE
:10580000924908801FE15A20FCF7B8FE0E208F490C
:10581000088018E1FCF752FE0F208C49088012E145
:105820005A20FCF7ABFE1020884908800BE14FF4AA
:10583000FA713C20FCF756FE11208449088002E1F1
:105840004FF4FA716FF02700FCF7C2FD12207F4978
:105850000880F8E013207D490880F4E0FCF72EFE74
:1058600014207A490880EEE0152078490880EAE0A3
:10587000162076490880E6E0FCF720FE17207349E1
:105880000880E0E0182071490880DCE05A20FCF72D
:105890005BFE19206D490880D5E0FCF70FFE1A2049
:1058A0006A490880CFE05A20FCF768FE1B20674950
:1058B0000880C8E01C2065490880C4E05A20FCF735
:1058C00043FE1D2061490880BDE01E205F4908801D
:1058D000B9E05A20FCF738FE1F205C490880B2E08E
:1058E00020205A490880AEE0212058490880AAE0CB
:1058F000222056490880A6E0FCF7E0FD232053490A
:105900000880A0E0FCF7DAFD2420504908809AE0E6
:1059100025204E49088096E026204C49088092E0D8
:105920005A20FCF72BFE2720484908808BE084E0B2
:105930007FE07AE075E06AE060E055E04BE043E04C
:105940003EE036E02FE028E023E01EE015E00CE02A
:1059500004E0FFE728203D49088074E05A20FCF766
:105960000DFE2920394908806DE02D215A20FCF7D1
:1059700057FD2A203549088065E02D215A20FCF783
:105980004FFD2B20314908805DE02C202F490880F5
:1059900059E02D202D49088055E0FCF78FFD2E2081
:1059A0002A4908804FE0FCF789FD2F20274908800D
:1059B00049E05A20FCF7C8FD30202449088042E025
:1059C0003120224908803EE05A20FCF7BDFD3220FC
:1059D0001E49088037E04FF4FA713C20FCF782FD45
:1059E00033201A4908802EE04FF4FA716FF0270037
:1059F000FCF7EEFC34201549088024E04FF4FA71DE
:105A00003C20FCF76FFD3520104908801BE04FF467
:105A1000E1616FF02700FCF7DBFC36200B490880C2
:105A200011E03720094908800DE038200749088037
:105A300009E039200549088005E000200349088075
:105A40000349087000BF00BF10BD000028010020FE
:105A50002A01002010B501460020002207E001F0D5
:105A600001034406200E18434910541CE2B2082AD0
:105A7000F5DB10BD7FB505460C4601210804FDF796
:105A800009FD0295ADF804400020ADF80600ADF820
:105A90000C008DF80E0001A90D48FEF7F3F918204F
:105AA0008DF8000000208DF8010005208DF802001F
:105AB00001208DF803006846FDF700F90122114628
:105AC0000348FEF7D5F901210148FEF7B4F97FBD7F
:105AD0000040014010B500240B48007888B1FDF764
